:100000008DC100000C94811A0C94561A0C942B1A72
:100010000C94001A0C94D5190C94AA190C947F19FD
:100020000C945419ACC10000AAC10000A8C1000082
:10003000A6C10000A4C10000A2C10000A0C1000030
:100040009EC100009CC100009AC1000098C1000040
:1000500096C1000094C1000092C100000C940A19DE
:100060008EC100000C94D7170C94AE1788C1000005
:1000700086C1000084C1000082C1000080C1000070
:100080007EC100007CC100007AC1000078C1000080
:1000900076C1000074C1000072C1000070C1000090
:1000A0006EC100006CC100006AC1000068C10000A0
:1000B00066C1000064C1000062C1000060C10000B0
:1000C0005EC100005CC100005AC1000058C10000C0
:1000D00056C1000054C1000052C1000050C10000D0
:1000E0004EC100003C183F182E18321836187618EA
:1000F000431847184D18511855185B185F186318A6
:10010000761869186D187118000021002400270066
:100110002A002D0030003300010100000401070116
:100120000A0100002200250028002B002E003100CB
:10013000340002010000050108010B010505050559
:10014000070508080808020202020A0A080804044F
:10015000040401010101010101010303030303037D
:100160000303040707070C0C0C0C0C0C0C0C02020C
:10017000020206060606060606060B0B0B0B0B0B09
:100180000B0B010210202008081020401020408096
:10019000020102010804020101020408102040804B
:1001A00080402010080402018004020180402010D9
:1001B0000804020108040201010204081020408022
:1001C000010204081020408000000A0B02090C0DF7
:1001D0000E080703040100000000000000000000FA
:1001E000000000000000000000000000000000000F
:1001F00000000000121110000000000000000000CC
:1002000000000000000000000000000000007C3C36
:100210003E5E2B3D3F2F5B5D3B2C2A225C00004065
:100220007A10F35A00A0724E18090010A5D4E80005
:1002300000E87648170000E40B54020000CA9A3B1D
:10024000000000E1F50500008096980000004042A3
:100250000F000000A0860100000010270000000031
:10026000E803000000006400000000000A00000035
:1002700000000100000000002C76D888DC674F08E1
:1002800023DFC1DFAE59E1B1B796E5E3E453C63AE7
:10029000E651997696E8E6C28426EB898C9B62ED5E
:1002A000407C6FFCEFBC9C9F40F2BAA56FA5F49018
:1002B000055A2AF75C936B6CF9676DC11BFCE0E48F
:1002C0000D47FEF520E6B500D0ED902E03009435E5
:1002D00077050080841E080000204E0A000000C838
:1002E0000C333333330F986E12831141EF8D211489
:1002F000893BE65516CFFEE6DB18D1844B381BF759
:100300007C1D901DA4BBE424203284725E228100F7
:10031000C9F124ECA1E53D27E346C74611241FBEE1
:10032000CFEFD1E2DEBFCDBF00E00CBF18E0A0E010
:10033000B2E0EEEDF0EA00E00BBF02C007900D92D4
:10034000A438B107D9F72FE0A4E8B8E001C01D92A6
:10035000A233B207E1F711E0CDE8D1E000E006C03A
:1003600021970109802FFE010E942448CC38D10733
:1003700080E00807A9F70E940D330C945D5040CE31
:10038000DC015996ED91FC915A973097B9F0838929
:100390009489A589B6894285538564857585841BB2
:1003A000950BA60BB70B811520E89207A105B105A7
:1003B00038F08FEF9FE7A0E0B0E0089580E090E094
:1003C0000895CF93DF931F92CDB7DEB76983DC0129
:1003D000ED91FC910280F381E02D41E050E0BE01FF
:1003E0006F5F7F4F19950F90DF91CF910895CF9256
:1003F000DF92EF92FF920F931F93E7E3F9E0808182
:100400009181A281B3810196A11DB11D8083918349
:10041000A283B3830E94FE1800911F091091200946
:1004200020912109309122096B017C01C01AD10A67
:10043000E20AF30AC0921B09D0921C09E0921D093E
:10044000F0921E09C0920E09D0920F09E092100995
:10045000F092110960931F0970932009809321097C
:100460009093220990911A0981E0892780931A09B3
:100470001F910F91FF90EF90DF90CF900895CF9252
:10048000DF92EF92FF920F931F93EFE5F9E08081E7
:100490009181A281B3810196A11DB11D80839183B9
:1004A000A283B3830E94FE180091270910912809A6
:1004B0002091290930912A096B017C01C01AD10AC7
:1004C000E20AF30AC0922309D0922409E092250996
:1004D000F0922609C0921209D0921309E0921409F1
:1004E000F0921509609327097093280980932909D0
:1004F00090932A0990911A0981E0892780931A091B
:100500001F910F91FF90EF90DF90CF900895CF92C1
:10051000DF92EF92FF920F931F93E7E8F9E080815B
:100520009181A281B3810196A11DB11D8083918328
:10053000A283B3830E94FE1800912F091091300905
:1005400020913109309132096B017C01C01AD10A26
:10055000E20AF30AC0922B09D0922C09E0922D09ED
:10056000F0922E09C0921609D0921709E09218094C
:10057000F092190960932F09709330098093310923
:100580009093320990911A0981E0892780931A0982
:100590001F910F91FF90EF90DF90CF9008951F93E0
:1005A000CF93DF93CDB7DEB76D970FB6F894DEBF6C
:1005B0000FBECDBFAB011C821B8223E832E03A8321
:1005C00029831E8221E0BC01CE0101960E94B9233D
:1005D00011E0811102C010E004C0CE0101960E941A
:1005E0007425812F6D960FB6F894DEBF0FBECDBF78
:1005F000DF91CF911F910895FC01818D928D00971D
:1006000011F00C94471F0895CF93DF93EC01898D6F
:100610009A8D009739F481E090E09B838A8380E093
:1006200090E00BC0FC01138212820E941820E98D19
:10063000FA8D22813381232B71F7DF91CF910895B9
:100640003F924F925F926F927F928F929F92AF9262
:10065000BF92CF92DF92EF92FF920F931F93CF93AF
:10066000DF93CDB7DEB72C970FB6F894DEBF0FBE81
:10067000CDBF5C01DC015B968D909C905C971696DB
:10068000CD90DD90ED90FC901997C114D104E10458
:10069000F10439F0BFEFCB1ADB0AEB0AFB0A312C6D
:1006A00007C0F401C080D180E280F380332433940A
:1006B000F40181859285A385B4859C01AD012F5FEE
:1006C0003F4F4F4F5F4F29873A874B875C87260103
:1006D00037011D821E821F821886F4018185928552
:1006E000A385B4852D813E814F8158852817390710
:1006F0004A075B0708F063C089859A85AB85BC858E
:100700008C159D05AE05BF0550F482E0C82ED12C96
:10071000E12CF12C92E0492E512C612C712C9E0180
:100720002F5F3F4FB701A601C4010E945C1E8823C2
:1007300009F445C089819A81AB81BC81892B8A2BC0
:100740008B2B41F0260137019FEF491A590A690A9C
:10075000790A05C0C414D504E604F70491F02D818C
:100760003E814F8158852F5F3F4F4F4F5F4F2D8305
:100770003E834F8358873FEFC31AD30AE30AF30A35
:10078000ACCF0FEF1FEF2FEF3FE0B301A201C40189
:100790000E941C15882399F0D50116964D915D9104
:1007A0006D917C911997411551056105710549F0CD
:1007B00093018201C4010E941C15811102C080E0D6
:1007C0002AC0D50116964D925D926D927C92199732
:1007D000332051F0D301C2010196A11DB11DF401D6
:1007E00080839183A283B383F5018789908DA18D46
:1007F000B28D892B8A2B8B2B69F4D50157964D929C
:100800005D926D927C925A9714968C9114978068A1
:1008100014968C9381E02C960FB6F894DEBF0FBE31
:10082000CDBFDF91CF911F910F91FF90EF90DF909F
:10083000CF90BF90AF909F908F907F906F905F9080
:100840004F903F900895089561E0FC0184810E94DB
:100850000D188091860A81111092860A08958EBD26
:1008600000000DB407FEFDCF8EB508958FEFF7CFD2
:100870000F931F93CF93DF93EB010E94FE188B0120
:10088000F5DF8F3F49F00E94FE18601B710B6C175B
:100890007D07B0F380E001C081E0DF91CF911F912F
:1008A0000F910895CF93DF93EC018E81882379F027
:1008B0008F8198859C012F5F3F4F38872F8382302F
:1008C000924010F4D3DFF4CFCE01BEDF1E82DF9161
:1008D000CF9108958CBD9DBD0895CF93DF93EC011A
:1008E0008091860A811108C081E08093860A8091F8
:1008F000420B9091430BEEDF60E08C81DF91CF9152
:100900000C940D18CF92DF92FF920F931F93CF9309
:10091000DF9300D01F92CDB7DEB76C01F62E29838E
:100920003A834B835C83BEDFC601D7DF6CE271E0A4
:10093000C6019EDF8F2D806492DF08E110E05C81AC
:100940004B813A812981DA01C901002E04C0B69594
:10095000A795979587950A94D2F729833A834B8375
:100960005C837DDF0850110929813A814B815C81CC
:10097000083F8FEF180739F7FF2029F0E8E0FE1253
:1009800004C087E803C085E901C08FEF68DF10E08D
:100990006DDFF601828787FF04C01F3F11F01F5FE4
:1009A000F7CF0F900F900F900F90DF91CF911F9185
:1009B0000F91FF90DF90CF900895AF92BF92CF92AA
:1009C000DF92EF92FF920F931F93CF93DF93EC018F
:1009D0006901C801820F931F8130924008F06AC0FC
:1009E0008E81882371F088819981AA81BB81481703
:1009F00059076A077B0729F48F819885C816D9069D
:100A000098F5488359836A837B838B85833039F0DB
:100A100089E0440F551F661F771F8A95D1F79A0109
:100A2000AB0161E1CE016EDF882319F083E08D8395
:100A300041C00E94FE185B0119DF8A878F3F49F48D
:100A40000E94FE186A197B096D327140A8F38FE08D
:100A500003C08E3F29F08DE08D83CE01F5DE2AC0E4
:100A600018861F8281E08E838F8198858C159D0565
:100A700038F4FCDE8F819885019698878F83F4CFB8
:100A80006701E00EF11ECE14DF0429F0EFDEF6015F
:100A900081936F01F8CF8F819885080F191F1887F0
:100AA0000F838985882319F00115124038F0CE0193
:100AB000F9DE04C0CE01C8DE80E001C081E0DF9134
:100AC000CF911F910F91FF90EF90DF90CF90BF904B
:100AD000AF900895EF92FF920F931F93CF93DF9300
:100AE000EC017901411551056105710511F482E1AF
:100AF00034C08B85833039F089E0440F551F661F61
:100B0000771F8A95D1F79A01AB0168E1CE01FADE31
:100B1000882311F084E021C08EEFA1DE87018EEFE3
:100B2000F81AF80181918F019ADE0E151F05C9F799
:100B30008FEF95DE8FEF93DE99DE8A878F71853098
:100B400029F081E18D83CE017FDE08C068E572E087
:100B5000CE018EDE811106C085E18D83CE0174DE6B
:100B600080E010C020E030E0A9016DE0CE01CADED7
:100B7000811103C07BDE882311F084E1EECFCE012A
:100B800063DE81E0DF91CF911F910F91FF90EF9095
:100B900008950F93FC0130E080E092E1AAE7B0E015
:100BA000481759076A077B0740F4B695A7959795AC
:100BB00087953F5F3630A1F737E091E093272223F6
:100BC00011F020E501C020E7892F86950C70082BD5
:100BD000022B0083917091830F910895FC01DB013A
:100BE00012968D919C9113979383828383E892E070
:100BF0009183808314968C911497848315968C919D
:100C00001597858316964D915D916D917C911997FD
:100C100046835783608771871A964D915D916D91D8
:100C20007C911D9742875387648775871E964D91E7
:100C30005D916D917C91519746875787608B718B41
:100C400052968C915297828B53964D915D916D91F6
:100C50007C915697438B548B658B768B57964D9131
:100C60005D916D917C915A97478B508F618F728FF8
:100C70005B968D919C915C97948F838F0895CF9311
:100C8000DF93EC01898D9A8D009741F00E947425C5
:100C9000898D9A8D0E94C9491A8E198EDF91CF9144
:100CA0000895FC011382128288EE93E0A0E0B0E088
:100CB00084839583A683B7838DE592E091838083B7
:100CC000128E118E14860895EF92FF920F931F9348
:100CD000CF93DF93EC017B018A011B821A8288EE9D
:100CE00093E0A0E0B0E08C839D83AE83BF838DE56D
:100CF00092E0998388838DE190E00E9434499A8F35
:100D0000898F009779F02DE1F701DC0101900D92B8
:100D10002A95E1F74CE050E0B801CE010C960E9414
:100D2000714B188EDF91CF911F910F91FF90EF9033
:100D30000895CF93DF931F92CDB7DEB741E050E027
:100D4000BE016F5F7F4F0E94B622019719F489811F
:100D500090E002C08FEF9FEF0F90DF91CF91089549
:100D6000FC01818D928D009709F0E3CF8FEF9FEF0B
:100D700008950F931F93CF93DF93FC01818D928D84
:100D80000097B1F0EF01D5DF8C010F3F8FEF18070F
:100D900091F0898D9A8DFC01428553856485758516
:100DA00041505109610971090E94831FC80105C0A2
:100DB00080E090E002C08FEF9FEFDF91CF911F9115
:100DC0000F910895CF93CFB7F8948091850A811140
:100DD00027C0E1E7F1E08491E7EBF1E09491E82F9F
:100DE000F0E0EE0FFF1FE85FFE4FA591B491EC918C
:100DF000E92321F461E085E30E940D1861E085E3B9
:100E00000E948A188CB580618CBD8CB580648CBDC5
:100E100061E084E30E948A1861E083E30E948A18FB
:100E20008091850A8F5F8093850ACFBFCF91089507
:100E3000FF920F931F93CF93DF93EC010E94EA4F31
:100E4000182FCE0101960E94EA4FF82ECE0102968D
:100E50000E94EA4F082FCE0103960E94EA4F4F2DC1
:100E600050E060E070E0762F652F542F4427410F4B
:100E7000511D611D711D10E020E030E09801112727
:100E80000027400F511F621F731F90E0A0E0B0E0E9
:100E9000B82FAA27992788278A019B01080F191FB5
:100EA0002A1F3B1FC901B801DF91CF911F910F91FC
:100EB000FF900895CF92DF92EF92FF92CF93DF934E
:100EC000EC016A017B01642F0E94F24F9927F7FC25
:100ED0009A958F2D7E2D6D2DCE0101960E94F24F99
:100EE000B701992777FD9095892FCE0102960E9430
:100EF000F24F6F2D772788279927CE010396DF9130
:100F0000CF91FF90EF90DF90CF900C94F24F0F9322
:100F10001F93CF93DF93CDB7DEB76B970FB6F894DF
:100F2000DEBF0FBECDBF8B01FC016081718143E14B
:100F3000CE0101960E945427EA8DFB8D309789F0EF
:100F40008581882371F0B801CE0101960E94F032AC
:100F5000CE01019694DEB80187E99AE00E94F03252
:100F600006C06BEE76E087E99AE00E94E0326B966D
:100F70000FB6F894DEBF0FBECDBFDF91CF911F91AA
:100F80000F9108954F925F926F927F928F929F92EE
:100F9000AF92BF92CF92DF92EF92FF920F931F9387
:100FA000CF93DF93CDB7DEB768970FB6F894DEBF67
:100FB0000FBECDBF082F10E09801220F331F220F64
:100FC000331FC9018957964F5C01F901E852F74F69
:100FD0007F018091870990918809A0918909B0913A
:100FE0008A094081518162817381841B950BA60B14
:100FF000B70BF50180839183A283B3838091870926
:1010000090918809A0918909B0918A09F70180839C
:101010009183A283B383C901815A964F6C01F90170
:10102000E055F74F7F0180915F0990916009A09191
:101030006109B09162094081518162817381841B91
:10104000950BA60BB70BF60180839183A283B38324
:1010500080915F0990916009A0916109B091620946
:10106000F70180839183A283B383C901895C964F82
:101070007C012857374F8091370990913809A0910A
:101080003909B0913A09F901408151816281738136
:10109000841B950BA60BB70BF70180839183A2836A
:1010A000B3838091370990913809A0913909B091A3
:1010B0003A09F90180839183A283B3838091330934
:1010C00090913409A0913509B09136098534964F35
:1010D000A845B84508F478C163E878E0CE014396A6
:1010E0000E94653263E878E0CE010D960E94653279
:1010F0004091330950913409609135097091360956
:101100002AE0CE0101960E94B32DBE016F5F7F4F92
:10111000CE010D960E94302DCE0101960E947F2DAA
:1011200062E674E0CE010D960E94222D409187095F
:10113000509188096091890970918A092AE0CE014D
:1011400001960E94B32DBE016F5F7F4FCE010D96B9
:101150000E94302DCE0101960E947F2D62E674E040
:10116000CE010D960E94222DF50160817181828150
:1011700093810E94D54E20E030E04AE754E40E947B
:1011800098484B015C0122E0AB01BC01CE01019605
:101190000E94842DBE016F5F7F4FCE010D960E948D
:1011A000302DCE0101960E947F2D62E674E0CE01C3
:1011B0000D960E94222D40915F0950916009609127
:1011C0006109709162092AE0CE0101960E94B32D57
:1011D000BE016F5F7F4FCE010D960E94302DCE0174
:1011E00001960E947F2D62E674E0CE010D960E946A
:1011F000222DF60160817181828193810E94D54EFA
:1012000020E030E04AEF54E40E9498482B013C0172
:1012100022E0AB01BC01CE0101960E94842DBE01EB
:101220006F5F7F4FCE010D960E94302DCE0101964B
:101230000E947F2D62E674E0CE010D960E94222D61
:1012400040913709509138096091390970913A09F4
:101250002AE0CE0101960E94B32DBE016F5F7F4F41
:10126000CE010D960E94302DCE0101960E947F2D59
:1012700062E674E0CE010D960E94222DF701608196
:101280007181828193810E94D54E20E030E04AEF47
:1012900054E40E9498486B017C0122E0AB01BC0140
:1012A000CE0101960E94842DBE016F5F7F4FCE015B
:1012B0000D960E94302DCE0101960E947F2D62E690
:1012C00074E0CE010D960E94222D40918709509125
:1012D00088096091890970918A09440F551F661F1A
:1012E000771F80915F0990916009A0916109B09189
:1012F0006209481B590B6A0B7B0B8091370990914F
:101300003809A0913909B0913A09481B590B6A0B69
:101310007B0B2AE0CE0101960E94B32DBE016F5FC8
:101320007F4FCE010D960E94302DCE0101960E9476
:101330007F2D62E674E0CE010D960E94222DA3015E
:101340009201C501B4010E943348A70196010E9491
:101350003348AB01BC0122E0CE0101960E94842DEE
:10136000BE016F5F7F4FCE010D960E94302DCE01E2
:1013700001960E947F2DBE01635F7F4FCE010796CD
:101380000E940B2E86E0809FB001819F700D11247A
:101390006E57734FCE0101960E940B2EBE01695FFE
:1013A0007F4FCE010196B3DDCE0101960E947F2DC5
:1013B000CE0107960E947F2DCE010D960E947F2DB3
:1013C000CE0143960E947F2D68960FB6F894DEBF3B
:1013D0000FBECDBFDF91CF911F910F91FF90EF9086
:1013E000DF90CF90BF90AF909F908F907F906F9045
:1013F0005F904F900895FC01DB0112968D919C91B6
:1014000013979383828314964D915D916D917C9196
:101410001797448355836683778318964D915D9122
:101420006D917C911B97408751876287738783ED0D
:1014300092E0918380831C968C91848708952F92EB
:101440003F924F925F926F927F928F929F92AF9254
:10145000BF92CF92DF92EF92FF920F931F93CF93A1
:10146000DF93CDB7DEB760970FB6F894DEBF0FBE3F
:10147000CDBF4C017C876B871A010F8318872987A2
:101480003A87B50180E090E00E94D54E2B013C01E7
:10149000F10160817181828193810E94D54EA30107
:1014A00092010E9498486D877E878F87988B6F8105
:1014B000788589859A850E94D54E6F83788789873C
:1014C0009A87C701B6010E94D54E6B017C0165E089
:1014D00077E0CE0101960E9465326B857C85CE0156
:1014E00001960E94112D6AE077E00E94FA2C4D854A
:1014F0005E856F8578890E94C52C6EE077E00E943A
:10150000FA2C8C01A30192016F81788589859A85D7
:101510000E94364F9B01AC0164EA73E986E59FE4C3
:101520000E949848AB01BC01C8010E94C52C64E12F
:1015300077E00E94FA2C8C01A3019201C701B60149
:101540000E94364F9B01AC0164EA73E986E59FE493
:101550000E949848AB01BC01C8010E94C52C6FE1F4
:1015600077E00E94FA2C6BEA76E00E94FA2CFC01EC
:101570004481558160817181C4016ED3CE01019691
:101580000E947F2D60E276E0C4010E94E03263E2B7
:1015900077E0C4010E940C33F101408151816281E6
:1015A0007381C4010E945D296BE277E0C4010E944F
:1015B0000C3320E030E04AE754E46F817885898578
:1015C0009A850E949848AB01BC01C4010E948929F8
:1015D00067E477E0C4010E940C3320E030E04AE782
:1015E00054E4C701B6010E949848AB01BC01C40194
:1015F0000E9489296FE476E0C4010E940C3360E206
:1016000076E0C4010E94E03260E276E0C4010E940C
:10161000E032F10164817581868197810E94D54E07
:10162000A30192010E9498486B017C016CE577E070
:10163000C4010E940C33B701A601C4010E9489298C
:10164000F10160857185828593850E94D54EA30145
:1016500092010E9498486B017C016BE677E0C4011F
:101660000E940C33B701A601C4010E948929F1012F
:1016700064857585868597850E94D54EA301920164
:101680000E9498486B017C016EE777E0C4010E94DC
:101690000C33B701A601C4010E948929F1016089B8
:1016A0007189828993890E94D54EA30192010E947B
:1016B00098486B017C0162E977E0C4010E940C3319
:1016C000B701A601C4010E948929F10164897589C5
:1016D000868997890E94D54EA30192010E9498485D
:1016E0006B017C0166EA77E0C4010E940C33B7010C
:1016F000A601C4010E9489296BEB77E0C4010E9416
:101700000C3360E276E0C4010E94E03260960FB6CE
:10171000F894DEBF0FBECDBFDF91CF911F910F9127
:10172000FF90EF90DF90CF90BF90AF909F908F9001
:101730007F906F905F904F903F902F900895CF9340
:10174000DF93EC0180910C0990910D090A9728F420
:1017500069EA75E0CE010E940C3340910C0950916A
:101760000D0960E070E02AE0CE010E94953260EC45
:1017700077E0CE010E940C3380910A0990910B0909
:101780000A9728F469EA75E0CE010E940C33409173
:101790000A0950910B0960E070E02AE0CE010E9436
:1017A000953260EC77E0CE010E940C3380910809FD
:1017B000909109090A9728F469EA75E0CE010E9420
:1017C0000C336091080970910909CE01DF91CF9126
:1017D0000C9460294F925F926F927F928F929F92AA
:1017E000AF92BF92CF92DF92EF92FF920E94FE18CB
:1017F000C090810AD090820AE090830AF090840A17
:101800006C157D058E059F05A0F480917D0A909151
:101810007E0AA0917F0AB091800A895C9647AE4B00
:10182000BF4F80937D0A90937E0AA0937F0AB09366
:10183000800AC0907D0AD0907E0AE0907F0AF090E6
:10184000800A8091840890918508A0918608B091C3
:101850008708C80ED91EEA1EFB1E0E94FE182B0127
:101860003C016091790A70917A0A80917B0A90918B
:101870007C0A28EE822E23E0922EA12CB12CA50109
:1018800094010E942C50C21AD30AE40AF50AC3013B
:10189000B201A50194010E942C50D701C601820F0C
:1018A000931FA41FB51F8093330990933409A0930D
:1018B0003509B09336090E94FE186093810A70932F
:1018C000820A8093830A9093840AC0903309D0904F
:1018D0003409E0903509F0903609C701B60120E8D7
:1018E00031E541E050E00E942C5030E1832E3EE093
:1018F000932EA12CB12CA50194010E942C50309361
:101900000D0920930C09C701B601A50194010E949D
:101910002C504CE3842E912CA12CB12CA5019401C8
:101920000E942C5030930B0920930A09C701B6017D
:10193000A50194010E942C50709309096093080935
:10194000FF90EF90DF90CF90BF90AF909F908F90DF
:101950007F906F905F904F9008954F925F926F923B
:101960007F928F929F92AF92BF92CF92DF92EF922F
:10197000FF9280E3E9E4FAE0DF011D928A95E9F73E
:1019800083EE8093490A86E080934B0A8CEE809325
:101990004C0A81E38093550A9EE49093560A809303
:1019A000570A84E38093580A4BE750E066E172E0FF
:1019B0008DE89BE00E94022F40E350E069E47AE06A
:1019C0008DE89BE00E9450178DE89BE00E949A2FC3
:1019D00060ED77E080E090E00E94C6188DE89BE023
:1019E0000E946A1C892B09F4F0C040E350E069E4CE
:1019F0007AE08DE89BE00E94241C8091710A90E0BF
:101A0000982F88272091720A822BA0E0B0E0DC0199
:101A1000992788274091730A50E0542F442720913A
:101A2000740A422B60E070E0842B952BA62BB72B19
:101A30008093450A9093460AA093470AB093480AB8
:101A400062EC77E087E99AE00E940C334091450A06
:101A50005091460A6091470A7091480A87E99AE0D6
:101A60000E9476296EED77E087E99AE00E940C33B8
:101A70000E94FE186093790A70937A0A80937B0A19
:101A800090937C0A10927D0A10927E0A10927F0A2F
:101A90001092800AC090450AD090460AE090470A0A
:101AA000F090480AB0E8CB1ABEE7DB0ABAEAEB0AC4
:101AB000B3E8FB0AC0928408D0928508E0928608B9
:101AC000F0928708B701A60187E99AE00E9476297B
:101AD0004091790A50917A0A60917B0A70917C0A50
:101AE00087E99AE00E9476296BEE77E087E99AE031
:101AF0000E940C33C701B60120E831E541E050E017
:101B00000E942C50E0E18E2EEEE09E2EA12CB12CF6
:101B1000A50194010E942C50BA01A90187E99AE01D
:101B20000E945D296AE387E99AE00E947932C70141
:101B3000B601A50194010E942C502B013C0188E5BF
:101B4000481682E058066104710428F460E387E9CE
:101B50009AE00E9479328CE3882E912CA12CB12C32
:101B6000C301B201A50194010E942C50BA01A90140
:101B700087E99AE00E945D296AE387E99AE00E947A
:101B80007932C701B601A50194010E942C506B0166
:101B90007C016A3071058105910528F460E387E9CD
:101BA0009AE00E947932B701A60187E99AE0FF9096
:101BB000EF90DF90CF90BF90AF909F908F907F90ED
:101BC0006F905F904F900C947629FF90EF90DF908C
:101BD000CF90BF90AF909F908F907F906F905F90CD
:101BE0004F900895CF93DF931F92CDB7DEB76983EF
:101BF000DC01ED91FC910280F381E02D41E050E0A9
:101C0000BE016F5F7F4F19950F90DF91CF910895BF
:101C1000DC01ED91FC91048CF58DE02D199591E09E
:101C200089270895862F089581E08627089580E307
:101C3000FB0180833296842F82958F7090E1899F7B
:101C4000401911244A3014F4405D01C0495C4293AC
:101C5000482F8111F0CF08956F927F928F929F92BB
:101C6000AF92BF92CF92DF92EF92FF920F931F93AA
:101C7000CF93DF931F921F92CDB7DEB75C014B016C
:101C80006A01FC011485143041F481E090E0F50113
:101C90009383828380E090E076C07A01413058409F
:101CA00018F0E12C88E0F82E00E021E040E059E057
:101CB0006DE370E0CE0101960E94C90589819A8189
:101CC0000E946A04812F0E94162B3C0163E070E0A1
:101CD000812F0E94742F082F0E942304073111F0D6
:101CE0000C3121F46E147F04F8F202C0E12CF12CC7
:101CF00000E021E040E059E06DE370E0CE010196A4
:101D00000E94C90589819A810E946A049701A401F1
:101D100060E070E0812F0E94B52A60E270E0812FC0
:101D20000E94A72A62E070E0812F0E94742F84FD38
:101D30001EC063E070E0812F0E94742F811106C0E5
:101D40000E942304812F0E94C11C9FCF0E94230464
:101D500000E021E040E059E06DE370E0CE01019643
:101D60000E94C90589819A810E946A04DBCF40E103
:101D700062E070E0812F0E946A2F0E942304EF2806
:101D800009F483CFC6010F900F90DF91CF911F917F
:101D90000F91FF90EF90DF90CF90BF90AF909F900A
:101DA0008F907F906F900895AF92BF92CF92DF9205
:101DB000EF92FF920F931F93CF93DF931F921F9287
:101DC000CDB7DEB7FC012485243009F084C05A0168
:101DD0007B016C0110E0812F0E94B21D811103C0B4
:101DE000F601148706C08B7F8831D1F31F5F143052
:101DF00091F7F6018485843009F46DC020912A02A0
:101E000030912B022F5F3F4F11F420E030EC3093E4
:101E10002B0220932A0240912A0250912B0220E0AB
:101E200061E00E94EC1CF6011485F70182818F3F6E
:101E300051F483818F3F99F484818F3F81F48581B0
:101E40008F3F69F445C081110AC0F7018381811178
:101E500006C08481811103C085818823C9F1A11442
:101E6000B104B1F100E021E040E059E06DE370E041
:101E7000CE0101960E94C90589819A810E946A0457
:101E8000B7016E5F7F4F812F90E0982F882744E045
:101E900050E0845F9B4F0E94DE1AB501812F0E94A3
:101EA000ED2F64E070E0812F0E94A72A0E94230496
:101EB000C6010E945130873189F061E070E080E016
:101EC00090E00E94C618C6010E9451308111F0CFE7
:101ED00084E0F601848780E090E002C081E090E039
:101EE0000F900F90DF91CF911F910F91FF90EF9086
:101EF000DF90CF90BF90AF9008952F923F924F9276
:101F00005F926F927F928F929F92AF92BF92CF9289
:101F1000DF92EF92FF920F931F93CF93DF93CDB792
:101F2000DEB765970FB6F894DEBF0FBECDBF7C015C
:101F30006B013A01FB0120E080E090E06AE0319122
:101F4000332309F140ED430F4A3080F4689FA0012C
:101F5000699F500D1124CA01C097830F911D37FD51
:101F60009A958F3F910559F350F313C03E3289F48F
:101F7000233079F0D301A20FB11D12968C932F5FFD
:101F800080E090E0DCCF233021F4F301858381E011
:101F900021C0F701428153816481758180913E0B9C
:101FA00090913F0BA091400BB091410B48175907FE
:101FB0006A077B0709F493C10E94FE188701085F36
:101FC0001F4F6F7077277C5FC8010E94712E813090
:101FD00019F080E090E0E8C187EF92E09A8389836E
:101FE000F70182819381A481B5818B839C83AD832A
:101FF000BE8345E350E0BE016F5F7F4FC8010E9482
:10200000FC2F892B19F4C12CD12C64C10E94FE181D
:10201000F701778366837627672776277A83698334
:1020200042E050E0BE016F5F7F4FC80139D781E0C9
:1020300090E09E878D8742E050E0BE01635F7F4F56
:10204000C8012ED780E091E09E878D8742E050E066
:10205000BE01635F7F4FC80123D71E861D8642E005
:1020600050E0BE01635F7F4FC8011AD742E050E0E5
:10207000BE01635F7F4FC80113D742E050E0BE014D
:10208000635F7F4FC8010CD75601F501808188231B
:1020900001F1F6015F018191811113C045018C1896
:1020A0009D081814190484F48F8641E050E0BE01A5
:1020B000615F7F4FC801F4D6A401B601C801F0D614
:1020C00003C08E3239F7EACF6501FFEFCF1ADF0A7E
:1020D000DCCF1F8641E050E0BE01615F7F4FC80149
:1020E000DFD6C12CDD24D394DE86CD8642E050E0DD
:1020F000BE01635F7F4FC801D3D6DE86CD8642E046
:1021000050E0BE01635F7F4FC801CAD6C8010E947C
:102110009A2F892B09F477CF63E0A62EB12CF2E039
:102120006F0E711C0E94FE181B012C01C8010E9439
:102130006A1C18161906A4F00E94FE18DC01CB01D7
:1021400082199309A409B50989389341A105B105FC
:10215000D0F462E370E080E090E00E94C618E6CF21
:10216000F7014281538164817581808D918DA28DAB
:10217000B38D481759076A077B0741F4848D958D05
:10218000C59721F406C02FEF3FEF9AC02EEF3FEF27
:1021900097C0F70181A192A10C970CF4A6C04CE066
:1021A00050E0BE016F5F7F4FC8010E94241C8B81ED
:1021B00090E0982F88272C81822B9A8B898B2981FC
:1021C00030E0322F22274A81242BF70146815781A4
:1021D0004217530709F086C097FF84C08F70927032
:1021E000892B09F0DEC0CF80D12CDC2CCC24888553
:1021F000C82AC114D10409F4D1C0812C912C8D813D
:1022000090E0982F88272E81822B8816990608F453
:102210006FC0812C912C41E050E0BE016D5E7F4F7C
:10222000C8010E94241C8B89982F907C09F093C0D0
:10223000811186C08B898111EECF42E050E0BE0152
:10224000615F7F4FC8010E94241C42E050E0BE0144
:10225000635F7F4FC8010E94241CC8010E94421C7A
:10226000C8010E94421CC8010E94421CC8010E9471
:10227000421C42E050E0BE016F5E7F4FC8010E94E9
:10228000241C8F8598898115914009F069C02D859E
:102290003E853227232732272130310509F060C0DF
:1022A00089899A898115944009F075C044E050E00D
:1022B000B301C8012C8B3D8B0E94241C2C893D89C5
:1022C0006901F1E0AF1AB10829F02FEFC216D2066A
:1022D00009F428CFC8010E945C2EC60165C08EEFAC
:1022E0009FEF62C02CEF3FEFEBCF2DEF3FEFE8CF3A
:1022F00041E050E0BE01635F7F4FC8010E94241C93
:102300008D85811113C08D858111F2CFC8010E9486
:10231000421CC8010E94421CC8010E94421CC80104
:102320000E94421CFFEF8F1A9F0A69CF8D859FEF95
:10233000980F9D87882339F3C8010E94421CF6CF6D
:102340008B899FEF980F9B8B882309F473CFC8016B
:102350000E94421CF5CFC8010E94421C1B8A6ACF12
:10236000412C512C89899A899827892798274816C2
:10237000590638F4C8010E94421C8FEF481A580AC7
:10238000F1CFEFEF8E1A9E0A8C149D0409F043CF13
:1023900026EF3FEF95CF27EF3FEF92CF2AEF3FEFAA
:1023A0008FCF2BEF3FEF8CCF65960FB6F894DEBF43
:1023B0000FBECDBFDF91CF911F910F91FF90EF9096
:1023C000DF90CF90BF90AF909F908F907F906F9055
:1023D0005F904F903F902F900895CF92DF92EF92B1
:1023E000FF920F931F93CF93DF93CDB7DEB7E197A3
:1023F0000FB6F894DEBF0FBECDBF7C016A0107EFB8
:1024000012E01A8309831B821C821D821E82CE0168
:10241000099668AB79AB0E94E82E1DA30CA31EA2FF
:102420001FA218A619A68091360B9091370BA09188
:10243000380BB091390B8CA79DA7AEA7BFA78B8394
:102440009C83AD83BE8318861F82AE014C5D5F4FB7
:1024500068A979A9CE01019650DD81309105B1F4CA
:10246000D701ED91FC910484F585E02D1BA70AA707
:102470008EA19FA1A8A5B9A58CA79DA7AEA7BFA710
:10248000A601BE01665D7F4FC7011995E1960FB6A3
:10249000F894DEBF0FBECDBFDF91CF911F910F919A
:1024A000FF90EF90DF90CF9008952F923F924F9240
:1024B0005F926F927F928F929F92AF92BF92CF92D4
:1024C000DF92EF92FF920F931F93CF93DF93CDB7DD
:1024D000DEB7E3970FB6F894DEBF0FBECDBF7C0129
:1024E0001A012B0139018AD64B015C0187010D5B72
:1024F0001F4FC8010E946A1C1816190694F07ED658
:10250000DC01CB0188199909AA09BB0928163906EB
:102510004A065B06D0F062E370E080E090E036D6D9
:10252000E8CF42E250E0BE016F5F7F4FC8010E94DA
:10253000241C8981823011F080E060C1F801848917
:10254000958983349105C1F702C08FEF57C16D8122
:102550007E818F8198850E942C484B015C01F3019C
:10256000608371838283938346E050E0B701685FA4
:102570007F4FCE014D960E94494B892BE9F6F7011A
:1025800080819181A281B38188169906AA06BB0633
:1025900098F284819581A681B78188159905AA054D
:1025A000BB0550F289899A89AB89BC898687978750
:1025B000A08BB18B8EECA82EB12CC8010E94421CBE
:1025C000F1E0AF1AB108C9F719A6670182E2C80E97
:1025D000D11CF701B696FBA7EAA7C7018A969DA76B
:1025E0008CA73C974F0189969FA78EA73897F9AB88
:1025F000E8AB1701F6E12F0E311CC5979BAB8AABF8
:10260000F801818D928D181619060CF0F6C0C801DC
:102610000E94421C8333910509F4CAC0FCF4813046
:102620009105C9F11CF4892B59F3DBC08330910566
:10263000D1F1069709F0D5C0C8010E94421C5C0187
:1026400044E050E06AA97BA9C8010E94241C412CE7
:10265000512CBB24F4E0AF1AB10840C08A33910575
:1026600009F47AC03CF48533910569F0C69709F402
:1026700040C0B7C08B33910509F484C08F3F9105EA
:1026800009F4BECFAEC0C8010E94421CC8010E941E
:10269000421C89A7B5CFC8010E94421C44E050E00B
:1026A00068A979A93AC0C8010E94421C5C0144E0B3
:1026B00050E0B101C8010E94241C412C512CBB24C4
:1026C00094E0A91AB1084A145B040CF099CFC80130
:1026D0000E94421CEFEF4E1A5E0AF5CF4A145B04CB
:1026E0000CF08ECFC8010E94421C8FEF481A580A86
:1026F000F5CFC8010E94421CB82EF701828D8111CE
:1027000010C0838D81110DC0848D81110AC0858D0B
:10271000811107C044E050E0B401C8010E94241CAC
:102720006FCFEEA5FFA54080518062807380B40119
:10273000CE01839603D48DA19EA1AFA1B8A5841527
:102740009505A605B70531F3BB2009F459CFC8019B
:102750000E94421CBA94F8CFC8010E94421C44E077
:1027600050E06AA57BA5C8010E94241CF70166A160
:1027700077A180A591A50E942C4866A377A380A786
:1027800091A73ECFC8010E94421C44E050E06CA5D6
:102790007DA5C8010E94241CF70162A573A584A52C
:1027A00095A50E942C4862A773A784A795A728CF58
:1027B000C8010E94421C44E050E0B601C8010E94DA
:1027C000241CF70162A173A184A195A10E942C4849
:1027D00062A373A384A395A366A777A780AB91ABED
:1027E0000FCFC8010E94421CB82EBB2009F408CFAD
:1027F000C8010E94421CBA94F8CF89A5E3960FB68F
:10280000F894DEBF0FBECDBFDF91CF911F910F9126
:10281000FF90EF90DF90CF90BF90AF909F908F9000
:102820007F906F905F904F903F902F9008957F9290
:102830008F929F92AF92BF92CF92DF92EF92FF92D0
:102840000F931F93CF93DF93CDB7DEB7A6970FB645
:10285000F894DEBF0FBECDBF8C01762E942E852E50
:1028600020E2B22ECE0101967C01FC012B2D1192AB
:102870002A95E9F787EF92E09AA389A38FEF8BA3BC
:102880008CA38DA38EA3680183E4C80ED11C43E4FE
:1028900050E0BE016F5D7F4FC6010E94FC2F019684
:1028A00009F4B6C081E089838A8386E0A82EAB82D2
:1028B0001C82F80164817581868197810E942C4871
:1028C0006D837E838F83988789869A8680E890E0DF
:1028D0009C878B874CE150E0B701C601E1D2F7013C
:1028E0002B2D11922A95E9F7480188E0880E911C5A
:1028F000F401D70101900D92AA94E1F740E150E074
:10290000B701C601CDD2F7011192BA94E9F796E06A
:10291000A92EB12C40E250E0B701C601C1D2F1E0CE
:10292000AF1AB108B9F783E6898392E89A8393E5F1
:102930009B838C8385E38D8381E08E837F829DE3FF
:10294000988797E099878A8786E0F401DE011B96D5
:1029500001900D928A95E1F78CE0898B8A8B6CEF60
:1029600077E0CE0143960E946A4BF8014385BE0191
:10297000675E7F4FC8015BD9F8014485BE01655E83
:102980007F4FC80154D9F8014585BE01635E7F4F72
:10299000C8014DD94EE150E0B701C60181D2F3E044
:1029A0007F121DC082E3898384E08A83F8019685C3
:1029B0009B8397859C8390899D8391899E8396E3D1
:1029C0009F838887828D8987838D8A87848D8B8773
:1029D000858D8C874CE050E0B701C60161D287E35A
:1029E000898386E08A8391E09B8393E09C838D8337
:1029F0008FE08E838AE38F838BE388878FEF8987CD
:102A000049E050E0B701C6014BD2C6010E949A2F9F
:102A1000A6960FB6F894DEBF0FBECDBFDF91CF9163
:102A20001F910F91FF90EF90DF90CF90BF90AF90EC
:102A30009F908F907F9008954F925F926F927F92B8
:102A40008F929F92AF92BF92CF92DF92EF92FF92BE
:102A50000F931F93CF93DF93EC016A017B01280151
:102A60003901423051056105710510F480E073C0F1
:102A700089859A85AB85BC850196A11DB11D8417FA
:102A80009507A607B70790F38B889C88AD88BE880A
:102A90008F89803129F4BB27AF2D9E2D8D2D09C044
:102AA000DB01CA0147E0B695A795979587954A95AA
:102AB000D1F7880E991EAA1EBB1E80912602909106
:102AC0002702A0912802B091290288169906AA0629
:102AD000BB0679F48F898031A1F4DD24EE24FF2434
:102AE000C601880F991FFC01EE5EF24F51824082B1
:102AF00019C040E0C501B4010E94141E8111EACF43
:102B0000B5CFE894C7F8DD24EE24FF24C601880F72
:102B1000991F880F991FFC01EE5EF24F408251828F
:102B2000628273828091870A81608093870A8A8992
:102B3000823080F08D819E81AF81B885880E991E8C
:102B4000AA1EBB1E8092880A9092890AA0928A0AC5
:102B5000B0928B0A81E0DF91CF911F910F91FF908E
:102B6000EF90DF90CF90BF90AF909F908F907F902D
:102B70006F905F904F900895FC01918D828D981712
:102B800061F0828DDF01A80FB11D5D968C91928D51
:102B90009F5F9F73928F90E008958FEF9FEF08954E
:102BA000FC01918D828D981731F0828DE80FF11D17
:102BB000858D90E008958FEF9FEF0895FC01918D32
:102BC000228D892F90E0805C9F4F821B91098F732B
:102BD0009927089587E99AE0F1DF21E0892B09F42C
:102BE00020E0822F0895FC01848DDF01A80FB11D24
:102BF000A35ABF4F2C91848D90E001968F73992733
:102C0000848FA689B7892C93A089B1898C9180641F
:102C10008C93938D848D981306C00288F389E02DE0
:102C200080818F7D80830895EF92FF920F931F9391
:102C3000CF93DF93EC0181E0888F9B8D8C8D98136F
:102C400005C0E889F989808185FD23C0F62E0B8DAA
:102C500010E00F5F1F4F0F731127E02E8C8DE812CD
:102C60000BC00FB607FCFACFE889F989808185FF90
:102C7000F5CFCE01B8DFF2CF8B8DFE01E80FF11D4D
:102C8000E35AFF4FF0820B8FEA89FB8980818062D3
:102C900007C0EE89FF896083E889F98980818064B3
:102CA000808381E090E0DF91CF911F910F91FF90A1
:102CB000EF900895CF93DF93EC01888D8823C1F0C6
:102CC000EA89FB89808185FD05C0A889B9898C9135
:102CD00086FD0EC00FB607FCF5CF808185FFF2CFD1
:102CE000A889B9898C9185FFEDCFCE017CDFE8CF33
:102CF000DF91CF91089580E090E0892B19F06ADF91
:102D0000811125C080E090E0892B41F080E090E0C7
:102D1000892B21F00E94000081111CC080E090E00E
:102D2000892B41F080E090E0892B21F00E94000087
:102D3000811113C080E090E0892BA1F080E090E049
:102D4000892B81F00E94000081110AC008950E9421
:102D50000000D8CF0E940000E1CF0E940000EACF1F
:102D60000C94000008953FB7F8948091930A9091D5
:102D7000940AA091950AB091960A26B5A89B05C021
:102D80002F3F19F00196A11DB11D3FBFBA2FA92FEA
:102D9000982F8827820F911DA11DB11DBC01CD0167
:102DA00042E0660F771F881F991F4A95D1F7089553
:102DB00008950895CF93DF931F92CDB7DEB769834F
:102DC000DC01ED91FC910280F381E02D41E050E0C7
:102DD000BE016F5F7F4F19950F90DF91CF910895DE
:102DE0008F929F92AF92BF92CF92DF92EF92FF921B
:102DF0000F931F93CF93DF937C018B016C0182E0D3
:102E0000C80ED11C4701E5E08E0E911CC0E0D0E059
:102E1000F60141916F0150E060E070E02AE0C801E6
:102E20000E9495325C016EE2C8010E9479328A0DDF
:102E30009B1DC80FD91FC814D90451F7F70145814C
:102E400050E060E070E02AE0C8010E9495328C0FEB
:102E50009D1FDF91CF911F910F91FF90EF90DF9019
:102E6000CF90BF90AF909F908F9008950E94454B58
:102E70001F93CF93DF93182F66E270E00E94742FA8
:102E8000C82FD0E067E270E0812F0E94742FDC2F02
:102E9000CC279E01282BC901DF91CF911F91089566
:102EA0008F929F92AF92BF92CF92DF92EF92FF925A
:102EB0000F931F93CF93DF931F921F92CDB7DEB76F
:102EC0006C014B017A01FC01A688B788108D00E0E7
:102ED00021E040E059E06DE370E0CE0101960E94F0
:102EE000C90589819A810E946A04812F0E94162B4C
:102EF0008E159F0520F4812F0E94162B7C019701CF
:102F0000A401B501812F0E94B52A0E942304F60175
:102F1000868997898E0D9F1D978B868BC7010F9091
:102F20000F90DF91CF911F910F91FF90EF90DF9065
:102F3000CF90BF90AF909F908F90089527EF32E091
:102F4000FC0131832083FB014081518162817381C7
:102F5000FC01428353836483758308951F920F920B
:102F60000FB60F9211240BB60F922F933F934F93EE
:102F70005F936F937F938F939F93AF93BF93EF93E1
:102F8000FF9387E99AE02FDEFF91EF91BF91AF9118
:102F90009F918F917F916F915F914F913F912F9171
:102FA0000F900BBE0F900FBE0F901F9018951F92A1
:102FB0000F920FB60F9211240BB60F922F938F938F
:102FC0009F93EF93FF93E091A70AF091A80A808165
:102FD000E091AD0AF091AE0A82FD12C0908180911D
:102FE000B00A8F5F8F732091B10A821751F0E09180
:102FF000B00AF0E0E956F54F958F8093B00A01C012
:103000008081FF91EF919F918F912F910F900BBE37
:103010000F900FBE0F901F901895362F90E0FC0177
:10302000E853FE4F4491FC01EE57FE4F2491FC0102
:10303000E45CFE4F9491992309F46BC0442309F496
:1030400055C050E0FA013197E231F10508F04EC069
:103050008827EE58FF4F8F4F0C94244880918000B2
:103060008F7707C0809180008F7D03C080918000A2
:10307000877F809380003AC084B58F7702C084B583
:103080008F7D84BD33C08091B0008F7703C0809165
:10309000B0008F7D8093B00029C0809190008F7721
:1030A00007C0809190008F7D03C080919000877F42
:1030B000809390001BC08091A0008F7707C0809103
:1030C000A0008F7D03C08091A000877F8093A00027
:1030D0000DC0809120018F7707C0809120018F7DE6
:1030E00003C080912001877F80932001E92FF0E0C9
:1030F000EE0FFF1FEE5DFE4FA591B4918FB7F894D0
:10310000EC91311103C020952E2301C02E2B2C935E
:103110008FBF0895CF93DF9390E0FC01EE57FE4FF1
:103120002491FC01E45CFE4F8491882361F190E0DE
:10313000880F991FFC01E85FFE4FC591D491FC01F7
:10314000EE5DFE4FA591B491611109C09FB7F8944F
:103150008881209582238883EC912E230BC06230D6
:1031600061F49FB7F8943881822F809583238883F8
:10317000EC912E2B2C939FBF06C08FB7F894E8815B
:103180002E2B28838FBFDF91CF9108958F929F922E
:10319000AF92BF92CF92DF92EF92FF926B017C01D0
:1031A000E2DD4B015C01C114D104E104F104E9F05A
:1031B000DADDDC01CB0188199909AA09BB09883E2F
:1031C0009340A105B10578F321E0C21AD108E108C6
:1031D000F10888EE880E83E0981EA11CB11CC11472
:1031E000D104E104F10421F7DECFFF90EF90DF90EE
:1031F000CF90BF90AF909F908F9008952FB7F89485
:1032000060918F0A7091900A8091910A9091920A30
:103210002FBF08951F920F920FB60F9211242F9374
:103220003F938F939F93AF93BF9380918F0A909119
:10323000900AA091910AB091920A30918E0A23E0EF
:10324000230F2D3720F40196A11DB11D05C026E8DE
:10325000230F0296A11DB11D20938E0A80938F0A21
:103260009093900AA093910AB093920A8091930A46
:103270009091940AA091950AB091960A0196A11D89
:10328000B11D8093930A9093940AA093950AB093EA
:10329000960ABF91AF919F918F913F912F910F907F
:1032A0000FBE0F901F9018951F920F920FB60F929E
:1032B00011240BB60F922F933F934F935F936F930D
:1032C0007F938F939F93AF93BF93EF93FF93E0917F
:1032D0000E02F0910F021995FF91EF91BF91AF91FE
:1032E0009F918F917F916F915F914F913F912F911E
:1032F0000F900BBE0F900FBE0F901F9018951F924E
:103300000F920FB60F9211240BB60F922F933F938B
:103310004F935F936F937F938F939F93AF93BF93DD
:10332000EF93FF93E0910C02F0910D021995FF913C
:10333000EF91BF91AF919F918F917F916F915F912D
:103340004F913F912F910F900BBE0F900FBE0F909A
:103350001F9018951F920F920FB60F9211240BB663
:103360000F922F933F934F935F936F937F938F931E
:103370009F93AF93BF93EF93FF93E0910202F0917D
:1033800003021995FF91EF91BF91AF919F918F919A
:103390007F916F915F914F913F912F910F900BBE55
:1033A0000F900FBE0F901F9018951F920F920FB69F
:1033B0000F9211240BB60F922F933F934F935F936D
:1033C0006F937F938F939F93AF93BF93EF93FF93ED
:1033D000E0910002F09101021995FF91EF91BF91E8
:1033E000AF919F918F917F916F915F914F913F919D
:1033F0002F910F900BBE0F900FBE0F901F9018953E
:103400001F920F920FB60F9211240BB60F922F93AB
:103410003F934F935F936F937F938F939F93AF935C
:10342000BF93EF93FF93E0910A02F0910B0219957D
:10343000FF91EF91BF91AF919F918F917F916F918C
:103440005F914F913F912F910F900BBE0F900FBE48
:103450000F901F9018951F920F920FB60F92112484
:103460000BB60F922F933F934F935F936F937F937E
:103470008F939F93AF93BF93EF93FF93E0910802D5
:10348000F09109021995FF91EF91BF91AF919F9132
:103490008F917F916F915F914F913F912F910F90FD
:1034A0000BBE0F900FBE0F901F9018951F920F929A
:1034B0000FB60F9211240BB60F922F933F934F9399
:1034C0005F936F937F938F939F93AF93BF93EF938C
:1034D000FF93E0910602F09107021995FF91EF9199
:1034E000BF91AF919F918F917F916F915F914F911C
:1034F0003F912F910F900BBE0F900FBE0F901F901A
:1035000018951F920F920FB60F9211240BB60F92BF
:103510002F933F934F935F936F937F938F939F93DB
:10352000AF93BF93EF93FF93E0910402F0910502F4
:103530001995FF91EF91BF91AF919F918F917F91DD
:103540006F915F914F913F912F910F900BBE0F9014
:103550000FBE0F901F9018952C9A08952C980895DF
:10356000CF92DF92EF92FF920F931F93CF93DF934F
:10357000EC017A018B016C01C40ED51ECC15DD0562
:1035800099F0ECDF8FE00E942F048D2F0E942F0412
:103590008C2F0E942F04219680E00E942F04F801B6
:1035A00081938F01D9DFEACFC701DF91CF911F91BE
:1035B0000F91FF90EF90DF90CF900895CF92DF9220
:1035C000EF92FF920F931F93CF93DF93EC017A0159
:1035D0008B016C01C40ED51ECC15DD0591F0BEDF4C
:1035E00080EF0E942F048D2F0E942F048C2F0E94A9
:1035F0002F042196F80181918F010E942F04ACDFE6
:10360000EBCFC701DF91CF911F910F91FF90EF900A
:10361000DF90CF9008951F93CF93DF931F921F9257
:10362000CDB7DEB7182F6A83998398DF80EF0E94A9
:103630002F049981892F0E942F04812F0E942F042B
:103640006A81862F0E942F0487DF81E00F900F9000
:10365000DF91CF911F9108951F93CF93DF93182F80
:1036600060E270E00E94742FC82FD0E061E270E049
:10367000812F0E94742FDC2FCC279E01282BC9019B
:10368000DF91CF911F910895EF92FF920F931F93B7
:10369000CF93DF931F921F92CDB7DEB7182F7B0118
:1036A00000E021E040E059E06DE370E0CE010196DA
:1036B0000E94C90589819A810E946A0421E041E043
:1036C00050E0B701812F0E94322B0E94230481E039
:1036D00090E00F900F90DF91CF911F910F91FF908D
:1036E000EF900895CF93DF931F92CDB7DEB7FC0123
:1036F000218D328D232B41F0BE016F5F7F4F808D76
:10370000C3DF898190E002C08FEF9FEF0F90DF91C0
:10371000CF910895DF92EF92FF920F931F93CF9373
:10372000DF931F921F92CDB7DEB7D82E00E021E0C5
:1037300040E059E06DE370E0CE0101960E94C905BA
:1037400089819A810E946A0400E010E08D2D90DB4F
:103750007C01892B19F08D2D8BDB8C010E151F053B
:10376000A9F70E942304C8010F900F90DF91CF9119
:103770001F910F91FF90EF90DF9008958F929F928D
:10378000AF92BF92CF92DF92FF920F931F93CF938E
:10379000DF931F921F92CDB7DEB7F82E4B016A015F
:1037A00000E021E040E059E06DE370E0CE010196D9
:1037B0000E94C90589819A810E946A0400E010E094
:1037C0008F2D56DB5C01892B19F08F2D51DB8C017D
:1037D0000A151B05A9F70115110599F463E070E0BE
:1037E0008F2D0E94742F8431F1F08823E1F001E0E5
:1037F00010E08C3111F400E010E0119501951109F1
:1038000012C0C016D1060CF48601101611065CF425
:1038100020E0A801B4018F2D0E94322B60E470E0FB
:103820008F2D0E94A72A0E942304C8010F900F9099
:10383000DF91CF911F910F91FF90DF90CF90BF90BC
:10384000AF909F908F900895CF93DF93FC01218DCF
:10385000328D2115310519F48FEF9FEF10C0EC0167
:103860004217530708F0A901888D88DF181619063A
:103870009CF7298D3A8D281B390B3A8F298FDF91C0
:10388000CF9108950F931F93CF93DF931F92CDB7DE
:10389000DEB7FC01218D328D232B59F08C0141E0E4
:1038A00050E0BE016F5F7F4F808D68DF18161906EC
:1038B0001CF08FEF9FEF08C0F801818D928D01976A
:1038C000928F818F898190E00F90DF91CF911F912E
:1038D0000F9108950F931F93CF93DF93CDB7DEB76A
:1038E00028970FB6F894DEBF0FBECDBF8C01F8014C
:1038F000818D928D892B49F0D801ED91FC91068044
:10390000F781E02DC8011995F2CF808D03DF1816DD
:10391000190654F548E050E0BE016F5F7F4FD801B3
:1039200058968C912BDF9C0118161906DCF48981BE
:103930009A81AB81BC81F801808B918BA28BB38B78
:103940008D8190E0982F88272E81820F911D958B75
:10395000848B2F8130E0322F22278885280F311D5C
:10396000328F218FC90102C080E090E028960FB607
:10397000F894DEBF0FBECDBFDF91CF911F910F91A5
:1039800008950F931F93CF93DF931F921F92CDB78C
:10399000DEB7182F00E021E040E059E06DE370E071
:1039A000CE0101960E94C90589819A810E946A040C
:1039B00060E170E0812F0E94A72A4FEF62E070E083
:1039C000812F0E946A2F0E9423040F900F90DF9195
:1039D000CF911F910F910895CF92DF92EF92FF92B6
:1039E0000F931F93CF93DF931F921F92CDB7DEB734
:1039F000182FC62E7A01D22EC4DF00E021E040E06D
:103A000059E06DE370E0CE0101960E94C9058981FD
:103A10009A810E946A044C2D4D2960E070E0812F4C
:103A20000E946A2FE114F10459F4E0908C0AF0909E
:103A30008D0A8FEFE81AF80AF0928D0AE0928C0A4C
:103A40004F2D64E070E0812F0E946A2F4E2D65E0BB
:103A500070E0812F0E946A2F61E070E0812F0E9448
:103A6000A72A0E94230481E00F900F90DF91CF914D
:103A70001F910F91FF90EF90DF90CF900895BF922C
:103A8000CF92DF92EF92FF920F931F93CF93DF932A
:103A900000D000D0CDB7DEB7FC01208D243009F076
:103AA00050C06A017B018C01B12C63E070E08B2D6A
:103AB0000E94742F811103C0F801B08E06C08831B6
:103AC000D9F3B394F4E0BF12F0CFF801808D8430C5
:103AD000C1F196E0E9E6F2E0DE01119601900D9267
:103AE0009A95E1F7F70193819F779C8394819D8359
:103AF00095819E83B7016E5F7F4F90E0982F882756
:103B000044E050E0845F9B4F59DDB601F801808DA1
:103B10000E94ED2FF801808D90E0982F882746E0D5
:103B200050E0BE016F5F7F4F8A5F9B4F47DDF8011A
:103B3000128E118E20E8A60162E0808D4DDF81E0BB
:103B400001C080E026960FB6F894DEBF0FBECDBF51
:103B5000DF91CF911F910F91FF90EF90DF90CF9069
:103B6000BF9008950F931F93CF93DF9300D0CDB7ED
:103B7000DEB7182F00E021E040E059E06DE370E08F
:103B8000CE0101960E94C90589819A810E946A042A
:103B900063E070E0812F0E94742F8B830E942304C6
:103BA0008B810F900F900F90DF91CF911F910F910C
:103BB00008958091870A8823A9F1409126025091A7
:103BC0002702609128027091290222E13DE0809154
:103BD000120F9091130F0E946A05811102C080E0BC
:103BE00008954091880A5091890A60918A0A7091DB
:103BF0008B0A411551056105710591F022E13DE007
:103C00008091120F9091130F0E946A05882339F357
:103C10001092880A1092890A10928A0A10928B0ACE
:103C20001092870A81E008958F929F92AF92BF927F
:103C3000EF92FF920F931F93CF934B015C01C42F20
:103C40008091260290912702A0912802B09129022A
:103C500088159905AA05BB05F9F0ABDF811102C0F3
:103C600080E020C082E1E82E8DE0F82E00E012E036
:103C700020E030E0B501A4018091120F9091130F64
:103C80000E94DD04882361F380922602909227022D
:103C9000A0922802B09229028091870AC82BC09373
:103CA000870A81E0CF911F910F91FF90EF90BF9015
:103CB000AF909F908F9008958F929F92AF92BF92F6
:103CC000CF92DF92EF92FF920F931F93CF93DF93E8
:103CD000FC0181859285A385B4850196A11DB11D46
:103CE00084179507A607B70710F480E05BC08389A7
:103CF0009489A589B689C789C03129F4852E962E65
:103D0000A72EBB2409C04A015B01C7E0B694A79463
:103D100097948794CA95D1F7E9016A017B018F01D5
:103D2000BC01CD01680D791D8A1D9B1D8090260266
:103D300090902702A0902802B0902902681579057A
:103D40008A059B0599F4F80187898031A1F4B701B0
:103D5000A601552766277727440F551FFA01EE5E07
:103D6000F24F80819181A0E0B0E017C040E05CDFBD
:103D70008111E9CFBACFB701A6014F775527662742
:103D80007727440F551F440F551FFA01EE5EF24F7F
:103D900080819181A281B381BF7088839983AA8336
:103DA000BB8381E0DF91CF911F910F91FF90EF9046
:103DB000DF90CF90BF90AF909F908F9008954F92DB
:103DC0005F926F927F92AF92BF92CF92DF92EF920B
:103DD000FF920F931F93CF93DF9300D01F92CDB725
:103DE000DEB78C0149835A836B837C835901C12CD4
:103DF000D12C7601412C82E0582E612C712C498106
:103E00005A816B817C819E012F5F3F4FC80154DF37
:103E1000882351F1D301C201F801058404C0880F41
:103E2000991FAA1FBB1F0A94D2F7C80ED91EEA1EFB
:103E3000FB1E49815A816B817C818789803129F001
:103E400088EF9FEFAFEFBFE004C088EF9FEFA0E0E7
:103E5000B0E0481759076A077B0788F2F501C0826E
:103E6000D182E282F38281E00F900F900F900F9049
:103E7000DF91CF911F910F91FF90EF90DF90CF9046
:103E8000BF90AF907F906F905F904F900895CF93C9
:103E9000DF93EC018D81882391F18C8187FF2CC009
:103EA0006E857F858889998941E0BEDE882339F156
:103EB000EA8980E2E89FF0011124DF01AE5EB24F93
:103EC0001097E9F08D81823050F44B895C896D89BF
:103ED0007E895C964D935D936D937C935F978F89FC
:103EE000988DA98DBA8DEE5EF24F938F828FB58B30
:103EF000A48B8C818F778C83DF91CF915ACE80E019
:103F0000DF91CF9108958F929F92AF92BF92CF92FF
:103F1000DF92EF92FF920F931F93CF93DF93EC0109
:103F20008D81811102C080E076C00B891C892D89AA
:103F30003E890417150726073707A8F36A017B0196
:103F4000823029F4CA86DB86EC86FD860DC0C1145A
:103F5000D104E104F10451F41E821F8218861986EF
:103F60001A861B861C861D8681E055C08A849B8428
:103F7000AC84BD84EB8DFC8D258530E0275F3F4F01
:103F8000B501A4014150510961097109022E04C013
:103F900076956795579547950A94D2F7D701C6014C
:103FA0000197A109B10904C0B695A7959795879582
:103FB0002A95D2F784179507A607B70720F0892816
:103FC0008A288B2849F44F89588D698D7A8D4E83C4
:103FD0005F836887798704C0841B950BA60BB70B9A
:103FE0004C015D018E010A5F1F4F81149104A104F1
:103FF000B10409F4A7CF4E815F8168857985980166
:104000008B8D9C8D59DE91E0891A9108A108B10829
:104010008111EBCF88CFDF91CF911F910F91FF904E
:10402000EF90DF90CF90BF90AF909F908F900895CA
:104030002F923F924F925F926F927F928F929F92B8
:10404000AF92BF92CF92DF92EF92FF920F931F93A6
:10405000CF93DF9300D01F92CDB7DEB78C015B0109
:104060001A01DC0115968C9115978130C1F41496D4
:104070008C9181FF14C082FF1AC0F80143895489D2
:104080006589768982859385A485B585841795078A
:10409000A607B70761F0C80136DF811108C081E0CB
:1040A00090E0F8019383828380E090E035C1610164
:1040B00083C0D8015B968D919C915C97FC01248113
:1040C00021502A013B0139E0769467945794479434
:1040D0003A95D1F7722E74207A01F1E0FF22772011
:1040E00009F476C080E092E08E199F0946018C1594
:1040F0009D0508F44C01D8015B962D913C915C978D
:1041000016968D919D910D90BC91A02D0297A109BD
:10411000B109F901058404C0880F991FAA1FBB1FAC
:104120000A94D2F74685578560897189840F951F57
:10413000A61FB71F9C01AD01270D311D411D511D4B
:1041400029013A01811432E0930609F087C0809179
:10415000260290912702A0912802B091290284158D
:104160009505A605B70559F48FEF9FEFDC01809305
:10417000260290932702A0932802B093290295016A
:10418000B301A2018091120F9091130F0E946A0552
:10419000882309F484CF9EEFB91AC818D908F8010A
:1041A00082859385A485B585880D991DA11DB11DB6
:1041B00082879387A487B587D8011A964D915D9120
:1041C0006D917C911D97C114D10409F072CF84C008
:1041D000E114F10409F086CF16964D915D916D9131
:1041E0007C911997411551056105710559F4579650
:1041F0008D919D910D90BC91A02D0097A105B105C9
:1042000039F520C09E012F5F3F4F56DD882309F40A
:104210004CCF89819A81AB81BC81F801238D348D8B
:10422000F9012789203129F048EF5FEF6FEF7FE038
:1042300004C048EF5FEF60E070E084179507A607C1
:10424000B70730F0C8010E94200381114BCF27CF60
:10425000F80186839783A087B18744CFE114F104E6
:1042600021F5D8011A964D915D916D917C911D9724
:1042700053968D919D910D90BC91A02D4817590793
:104280006A077B0790F095DC882309F408CF4092F9
:104290002602509227026092280270922902809191
:1042A000870A81608093870A07C041E0C301B20199
:1042B000BBDC882309F4F3CED501F701EE5EF24FA3
:1042C000CF01880D991DE817F90719F02D91219359
:1042D000FACFA80CB91C61CF53968D919D910D908A
:1042E000BC91A02D84179507A607B70740F4F801E5
:1042F000438B548B658B768B848180688483D80153
:1043000014968C9183FD02C0C10106C0C801BFDDB7
:10431000882309F4C4CEF8CF0F900F900F900F9020
:10432000DF91CF911F910F91FF90EF90DF90CF9091
:10433000BF90AF909F908F907F906F905F904F90C5
:104340003F902F900895CF93DF931F92CDB7DEB7A4
:10435000698341E050E0BE016F5F7F4F69DE0F90DF
:10436000DF91CF9108958F929F92AF92BF92CF929B
:10437000DF92EF92FF920F931F93CF93DF9300D0C2
:104380001F92CDB7DEB77C0180E2689F60011124E7
:1043900096012E5E324FD9011B969C91917121F0AE
:1043A000842F827409F094C0142FF701628B8091DE
:1043B000260290912702A0912802B09129028687B7
:1043C0009787A08BB18BF601EE5EF24F4489558939
:1043D00060E070E0BA0155274427D70157964D9306
:1043E0005D936D937C935A97828D938DA0E0B0E09E
:1043F000482B592B6A2B7B2BD70157964D935D93F6
:104400006D937C935A97D9011B968C91887159F4BE
:10441000848D958DA68DB78DF701838B948BA58B9D
:10442000B68B81E011C0803109F052C097012D5E3A
:104430003F4FD7015B968D919C915C97C0DC8823A0
:1044400009F446C084E0F7018583812F8F70D7017E
:1044500014968C931497F701168217821086118692
:104460001A961D921D921D921C921D9716FF32C026
:1044700015968C91813061F511FF2AC0F7014389AF
:10448000548965897689452B462B472B09F45DC0F5
:1044900040E050E0BA01C70136DD8823C9F0F701DA
:1044A0008788908CA18CB28CC38CD48C82E090E0F5
:1044B000A0E0B0E0F60180839183A283B3839E01E4
:1044C0002F5F3F4FB501A401C601F6DB811104C087
:1044D00080E03BC081E039C000E010E09801B50108
:1044E000A401C6010E941C15882391F389809A803B
:1044F000AB80BC80D60157968C91803129F088EF33
:104500009FEFAFEFBFE004C088EF9FEFA0E0B0E007
:1045100088169906AA06BB0690F2D70157961D92F7
:104520001D921D921C925A97F701138A148A158ABC
:10453000168A848180688483C701A9DC882341F2BC
:1045400040E050E0BA01C701DEDC0F900F900F9001
:104550000F90DF91CF911F910F91FF90EF90DF901F
:10456000CF90BF90AF909F908F9008952F923F92E1
:104570004F925F926F927F928F929F92AF92BF9273
:10458000CF92DF92EF92FF920F931F93CF93DF931F
:10459000EC016B014A018D81811103C08FEF9FEF08
:1045A000D5C08C8180FFFACF4B885C886D887E886F
:1045B0004A855B856C857D85C401A0E0B0E09301F0
:1045C0008201041B150B260B370B081719072A0746
:1045D0003B0718F44201841A950A54011E0126E093
:1045E000220E311CA114B10409F47DC04A855B85FB
:1045F0006C857D852A0181E05822ED818A019B012D
:1046000089E036952795179507958A95D1F78B8D73
:104610009C8DE23061F4FC01828D938DA48DB58D6B
:10462000BC01CD01600F711F821F931F3EC0FC01B2
:1046300074807A94702241145104C1F4711016C030
:10464000452B462B472B49F48F89988DA98DBA8D20
:104650008E839F83A887B98709C04E815F81688553
:104660007985910129DB882309F498CFEB8DFC8DA6
:104670008E819F81A885B9850297A109B10905841A
:1046800004C0880F991FAA1FBB1F0A94D2F7468542
:10469000578560897189840F951FA61FB71FBC01BC
:1046A000CD01670D711D811D911D20E032E024199F
:1046B000350935012A153B0508F439012C8126FD01
:1046C00004C06114F2E07F0681F40091260210918B
:1046D0002702209128023091290260177107820772
:1046E0009307A9F402C0C40131C040E09DDA8823D9
:1046F00009F454CFF201EE5EF24FD601CF01860DE0
:10470000971DE817F90789F021912D93FACF7601CB
:1047100083019201AB01BC018091120F9091130FA4
:104720000E94DD04882309F439CFC60CD71C8A8582
:104730009B85AC85BD85860D971DA11DB11D8A8702
:104740009B87AC87BD87A618B7084CCFDF91CF9168
:104750001F910F91FF90EF90DF90CF90BF90AF909F
:104760009F908F907F906F905F904F903F902F9091
:1047700008954F925F926F927F929F92AF92BF92F5
:10478000CF92DF92EF92FF920F931F93CF93DF931D
:10479000CDB7DEB72B970FB6F894DEBF0FBECDBFF7
:1047A0007C01DC011596AC90A11086C1FE0131960A
:1047B0006F0190E28BE08E0F91938E13FDCFDA01A3
:1047C00030E087E09D91992339F19E3219F0EEE0B7
:1047D000F2E00AC08A3009F470C138E08AE0F2CF12
:1047E0003196491709F469C144914111F9CF8317F2
:1047F00008F463C14FED490F4E3508F05EC141E04A
:10480000430FF601E30FF11D3FE9390F3A3108F488
:1048100090529083342FD6CF8981803209F44DC1D4
:10482000B22E8B01DB015B968D919C915C97F70119
:10483000948F838F16961D921D921D921C9219972C
:10484000FB011286138614861586712CF801828569
:104850009385A485B58543895489658976898417AC
:104860009507A607B70708F061C025E0B695A7959C
:10487000979587952A95D1F7F82FFF706F2ED8015D
:1048800015968C91823008F418C1C8010E949906CF
:1048900097FD13C1F80182859385A485B5854F9650
:1048A000A11DB11D82879387A487B587F0E26F9E13
:1048B000C0011124BC016E5E724F6115710509F4CF
:1048C000FCC0DB012C91222319F0253EC1F427C046
:1048D00071100EC0F701628A4091260250912702A2
:1048E000609128027091290246875787608B718BEF
:1048F000FC01EE5EF24F8081811113C015C04BE0C8
:1049000050E0C6010E94494B892B09F09FCF8B2DA7
:104910008073803309F4D1C04B2D662DC9C0772038
:10492000C9F27724739492CF772473948B2D82717C
:10493000823109F0C2C07720C9F0D7011E966D916F
:104940007D918D919C91519741E06ED9882309F416
:10495000B4C0F7016289F0E26F9FB00111246E5E6E
:10496000724F6115710509F078C0A7C0D80115967E
:104970008C91823009F4A1C0C8010E9420038823D1
:1049800009F49BC0D8015B96ED91FC915C9716965B
:104990004D905D906D907C901997B2E04B1A510844
:1049A00061087108058404C0440C551C661C771C02
:1049B0000A94D2F786859785A089B189480E591E39
:1049C0006A1E7B1E9480E1E04E1A5108610871084E
:1049D000992001F1EED8882309F46FC0E2E1FDE0EF
:1049E00011922FE0E231F207D9F7D301C201890D0C
:1049F000911DA11DB11D8093260290932702A093C3
:104A00002802B09329028091870A81608093870AE7
:104A10009A94DECFD8015B96ED91FC915C9780E093
:104A200092E0A0E0B0E0058404C0880F991FAA1F9F
:104A3000BB1F0A94D2F7F8014389548965897689A6
:104A4000840F951FA61FB71F838B948BA58BB68BE6
:104A5000D70152961C9262E17DE080E2FB01119247
:104A60008A95E9F78BE0F601DB0101900D928A95BA
:104A7000E1F781E298E2DB0151969C938E93509787
:104A800020E038E01F963C932E931E9753969C93FC
:104A90008E93529759969C938E93589757963C9322
:104AA0002E93569786D8882341F04B2DF7016289C3
:104AB000C70159DCA82E01C0A12C8A2D2B960FB658
:104AC000F894DEBF0FBECDBFDF91CF911F910F9144
:104AD000FF90EF90DF90CF90BF90AF909F907F902E
:104AE0006F905F904F900895CF93DF93EC01CFD9F3
:104AF000882311F01D8281E0DF91CF910895CF923C
:104B0000DF92EF92FF92CF93DF93EC010E94FE18A9
:104B10006B017C018091AE0B9091AF0BDC01ED91AC
:104B2000FC910480F581E02D1995892B79F40E9480
:104B3000FE18AB01BC014C195D096E097F094839AB
:104B40005A436105710530F380E00DC08091AE0BD2
:104B50009091AF0BDC01ED91FC910680F781E02D87
:104B60001995888381E0DF91CF91FF90EF90DF90DE
:104B7000CF900895CF93DF93DC014E5F5F4FFC0130
:104B80009F012A1B3B0B9191992339F0EB01C40F34
:104B9000D51F98834F5F5F4FF3CFCA01821B930BE2
:104BA000680F791FFB013297308331962083CA0149
:104BB000DF91CF910895CF92DF92EF92FF920F9302
:104BC0001F93CF93DF9300D01F92CDB7DEB79A012A
:104BD000E0E0922F9F77220F232F221F330B319576
:104BE0002115310509F0906801E00E0FA1E0B0E059
:104BF000AC0FBD1FAE0FB11DFD0190832115310516
:104C000011F0E02FE6CF10E0DB01A01BB10B1496F2
:104C10008C93FE0131966F0180E090E08017910740
:104C200064F4F601F1906F019C01201B310B260FFB
:104C3000371FF901F5820196F1CF8091AE0B90916B
:104C4000AF0B4F5F5F4F040F151FFC0120813181B7
:104C5000F90122813381A801BD01F90119957C0177
:104C60000E94FE186093320C7093330C8093340CC6
:104C70009093350C81E0E016F10609F080E00F908A
:104C80000F900F900F90DF91CF911F910F91FF9098
:104C9000EF90DF90CF9008955F926F927F928F9206
:104CA0009F92AF92BF92CF92DF92EF92FF920F93BB
:104CB0001F93CF93DF931F92CDB7DEB74C0180EBEC
:104CC0009BE01DDF811125C021C00F5F1F4F89812F
:104CD000F801E255F44F8183282F2F7730E02C9D87
:104CE000A0012D9D500D3C9D500D1124A40EB51E0C
:104CF00037E0CC0CDD1CEE1CFF1C3A95D1F787FF8A
:104D000014C0CE010196FBDE8111DFCF80E090E080
:104D100085C07090B00B198201E010E0A12CB12C7D
:104D2000C12CD12C7601C394ECCF872D807F5524E4
:104D30005394803309F0512C8FEF800FD4018C9362
:104D4000552011F1C8018055944FD9DE8823F1F226
:104D5000C8018F54944FD3DE8823C1F20E5F1F4FDA
:104D6000D401EC91F0E0E255F44FE380F12CFE2CFD
:104D7000EE248481E80EF11C8091B00B81FF08C005
:104D8000B2E0EB0EF11C04C080E0E12CF12C01C07C
:104D900082E0C82ED12CC01AD10A9EEF692E77244A
:104DA0007A94C601800F911F8A159B0560F5CE018C
:104DB0000196A5DE882309F4A9CF8091470C909134
:104DC000480C0097A9F0552099F0F4012081A30127
:104DD000421B51099A01200F311FE216F30640F4DD
:104DE000DC01ED91FC910190F081E02D6981199534
:104DF0000038110528F48981F801E255F44F8283C7
:104E00000F5F1F4FCECF8091470C9091480C892B9C
:104E100021F40138110508F079CFC8010F90DF9116
:104E2000CF911F910F91FF90EF90DF90CF90BF90A7
:104E3000AF909F908F907F906F905F90089580913A
:104E4000AE0B9091AF0B009759F1DC01ED91FC9105
:104E50000488F589E02D1995811124C08091490CB1
:104E600090914A0C892BE1F48DEF9FEF90934A0CBF
:104E70008093490C8091AE0B9091AF0BDC01ED91CA
:104E8000FC910284F385E02D19958091AE0B9091F1
:104E9000AF0BDC01ED91FC910288F389E02D1995AF
:104EA00080E0089581E008952F923F924F925F92A3
:104EB0006F927F928F929F92AF92BF92CF92DF922A
:104EC000EF92FF920F931F93CF93DF93CDB7DEB78F
:104ED000C756D1090FB6F894DEBF0FBECDBF3C0157
:104EE0005B01A6964FAFA6974E018EE1880E911CEE
:104EF0006EE67BE0C4010E94EE051C821B8283E803
:104F000092E09A8389831E827501FE0131966F01BA
:104F100024011F016FE270E0C7010E945F4B009700
:104F2000D9F1F70120812F3221F4FFEFEF1AFF0AA8
:104F3000F1CF8E198D3008F08CE0082F10E0A80119
:104F4000B701CE01885A9F4F0E94714BE8E5F0E00F
:104F5000EC0FFD1FE00FF11F1082C601C5DD21E03F
:104F6000AE01485A5F4FB201C60103DC81110AC08D
:104F70001EAE1DAE83E892E09CAF8BAF21961FAEB4
:104F8000219716C0E00EF11EC201AEDD942D852DD5
:104F90002601C92ED82EBECFC7018A199B09A89613
:104FA0009FAF8EAFA897B201CE01CB960E94EE05BF
:104FB000A896EEADFFADA897AE0EBF1EF50180819D
:104FC000811109C0BE01655C7F4FC1010E94EE05E1
:104FD00049E756E039C019A218A283E892E09F8FF2
:104FE0008E8F1BA221968FAD2197811104C0C30122
:104FF0000E9451062DC08250A6962FADA697A501FE
:10500000823038F46EE67BE0C401B3DB81110BC063
:10501000EECFBE01655C7F4FC401ABDB882339F363
:10502000CE01CB9661DDA6968FADA697867039F03E
:1050300049A95AA96BA97CA9C4010E94831FB40184
:10504000C1010E94EE05A501B101C3010E946406E1
:10505000C301C959DF4F0FB6F894DEBF0FBECDBFF5
:10506000DF91CF911F910F91FF90EF90DF90CF9044
:10507000BF90AF909F908F907F906F905F904F9078
:105080003F902F9008958F929F92AF92BF92CF92B0
:10509000DF92EF92FF920F931F93CF93DF93CDB7E1
:1050A000DEB7C754D1090FB6F894DEBF0FBECDBF2F
:1050B0005C0119A218A283E892E09F8F8E8F1BA239
:1050C0001C821B829A8389831E8200E010E06E019D
:1050D0008EE1C80ED11C8EE6E82E8BE0F82E8824D7
:1050E00083949801F501E00FF11F80818F3211F454
:1050F0002F5F3F4FFE01FB9680E090E0D501A20FAD
:10510000B31F4C914F3249F0442339F001962F5F81
:105110003F4F41938C30910589F7EBE3F0E0EC0FC2
:10512000FD1FE80FF91F1082F501E20FF31F8081C8
:105130008F3211F42F5F3F4F8901F501E20FF31F0A
:10514000992493948081811101C0912C20E030E05A
:10515000492D4825BE01655C7F4FC7010E94CF02E3
:10516000811109C09EE6E9169BE0F90611F0C7011E
:10517000BBDC80E028C09920B9F021E0AE01455C9D
:105180005F4FB701C601F5DA982E8EE6E8168BE080
:10519000F80699F0C701A8DC992059F39E2D8F2DB0
:1051A0007601C92ED82E9DCF9EE6E9169BE0F90622
:1051B00011F0C70199DC81E006C09920D1F2CE013F
:1051C00001967C01EBCFC95BDF4F0FB6F894DEBFD1
:1051D0000FBECDBFDF91CF911F910F91FF90EF9048
:1051E000DF90CF90BF90AF909F908F9008950F93D6
:1051F0001F93CF93DF93EC0188819981009729F069
:105200002A813B812617370788F48B016F5F7F4F18
:105210000E94614A009761F0998388831B830A8307
:105220002C813D81232B11F4FC01108281E001C00F
:1052300080E0DF91CF911F910F910895EF92FF923F
:105240000F931F93CF93DF93FC0124813581611568
:10525000710511F480E018C041155105A1F07B01E2
:10526000EC018A01020F131FB801C1DF882391F3FB
:10527000288139818C819D81B701820F931F0E9403
:105280006A4B1D830C8381E0DF91CF911F910F91B9
:10529000FF90EF900895CF93DF93EC01888199817F
:1052A000009711F00E94C949198218821D821C8240
:1052B0001B821A82DF91CF9108952AE00C949532D7
:1052C0000F931F93CF93DF93EC01AB0160E070E08D
:1052D0002AE00E9495328C01CE010E94DD32800FBF
:1052E000911FDF91CF911F910F9108950F931F93FD
:1052F000CF93DF93EC012AE00E9495328C01CE011E
:105300000E94DD32800F911FDF91CF911F910F918D
:1053100008958F929F92AF92BF92CF92DF92EF92B9
:10532000FF920F931F93CF93DF93EC016A017B01F0
:105330009A01AB01C701B6010E943049882319F0D8
:1053400065E778E027C046015701E894B7F82FEFEA
:105350003FEF4FE75FE7C501B4010E94304981117B
:105360000DC02FEF3FEF4FE75FE7C501B4010E948B
:10537000D14E18161CF469E778E00CC02FEF3FEF10
:105380004FE75FE4C701B6010E942C4918168CF460
:105390006DE778E0CE01DF91CF911F910F91FF90E3
:1053A000EF90DF90CF90BF90AF909F908F900C9434
:1053B00080322FEF3FEF4FE75FECC701B6010E944D
:1053C000D14E87FDE5CF20E030E0A901C701B6014D
:1053D0000E94D14E87FF0AC06DE2CE010E94793251
:1053E0008C01F7FAF094F7F8F09402C000E010E0B6
:1053F0002AE037ED43EA5BE3C701B6010E94344877
:105400006B017C010E9400494B015C010E94D54E5A
:105410009B01AC01C701B6010E9433486B017C01BE
:105420002AE0B501A401CE010E949532080F191F90
:1054300060E874E0CE010E948032080F191F20E05E
:1054400030E040E251E4C701B6010E94364F4B0103
:105450005C010E9400496B01E12CF12C2AE0B701AC
:10546000A601CE010E949532080F191FC701B6018F
:105470000E94D54E9B01AC01C501B4010E94334886
:1054800020E030E040E251E40E94364F0E940049A3
:10549000AB0160E070E02AE0CE010E949532800FFF
:1054A000911FDF91CF911F910F91FF90EF90DF90AF
:1054B000CF90BF90AF909F908F9008950F931F93C0
:1054C000CF93DF938C01E4E2FFE001900020E9F745
:1054D0003197EF01C452DF40B2DC882391F1F8012B
:1054E00001900020E9F73197E01BF10BCE01079600
:1054F000E80FF91FE138F10520F545E050E060EBD9
:105500007BE0C80137DBA4E2BFE020E030E02C17ED
:105510003D0751F04D91F901E80FF91FE255F44FA5
:1055200042832F5F3F4FF3CF25503109A901480F28
:10553000591F60EB7BE080E3DF91CF911F910F91CA
:105540003ACB80E0DF91CF911F910F910895CF93D7
:10555000C82F462F61E070E0BDD461E070E08C2F71
:10556000C3D48111FACFCF9108959F92AF92BF9289
:10557000CF92DF92EF92FF920F931F93CF93DF931F
:10558000982E8B015A01690164E270E0ADD4E82ED7
:10559000F12C65E270E0892DA7D4FE2CEE24E82AD8
:1055A000E701C00FD11F9E013770E92CF12CC70114
:1055B000880F991FAC014C5E504F7A01FA0180812F
:1055C0009181820F931FA9014C0D5D1D4130584000
:1055D00090F000E018E0021B130BA801B5010E9437
:1055E000DE1AA601401B510BB501600F711FF701B8
:1055F0008081918102C0A601B5010E94DE1ACC0D06
:10560000DD1D4D2F64E270E0892D64D44C2F65E2DE
:1056100070E0892DDF91CF911F910F91FF90EF9056
:10562000DF90CF90BF90AF909F9054C4FF920F93A4
:105630001F93CF93DF93F82EC0E0D0E08F2D0E9410
:105640002C1B8C01892B21F08F2D0E942C1BEC012F
:10565000C017D10799F7CE01DF91CF911F910F911C
:10566000FF9008958F929F92AF92BF92CF92DF9258
:10567000EF92FF920F931F93CF93DF93B82E4B01BE
:105680008A01A22E68E270E02FD4C82FD0E069E230
:1056900070E08B2D29D4DC2FCC27C82B9E013770CE
:1056A000CB2CD12CC601880F991FAC01445E504F02
:1056B0006A01FA0180819181820F931FA801420F34
:1056C000531F4130584098F060E078E07B01E21AC7
:1056D000F30AA701B4010E94B01AA8014E195F098C
:1056E000B4016E0D7F1DF6018081918102C0A80179
:1056F000B4010E94B01AA1100CC0C00FD11F4D2FD1
:1057000068E270E08B2DE6D34C2F69E270E08B2DC0
:10571000E1D3DF91CF911F910F91FF90EF90DF9038
:10572000CF90BF90AF909F908F9008958F929F924F
:10573000AF92BF92CF92DF92EF92FF92CF93DF931F
:10574000C82F84E49BE09093130F8093120FCC2317
:1057500069F1C53010F080E00DC140E060E070E01C
:10576000CB010E94141E8823B1F320E1C29FC00127
:1057700011248E5F924FFC01E254FE4F20812F775F
:1057800051F73C96408151816281738144365105C5
:105790006105710500F33497C080D180E280F38009
:1057A000C114D104E104F10421F4D5CFC12CD12CD2
:1057B000760140E0C701B6010E94141E882359F209
:1057C00080911D0D90911E0D8115924021F6A091A2
:1057D000220DAA2309F4BFCF6091200D7091210DF5
:1057E0006115710509F4B7CF20911F0D222309F42B
:1057F000B2CFA093620B2093540B80E030E0E1E045
:10580000F0E0C82FAF01082E02C0440F551F0A94C4
:10581000E2F72417350741F0982F8F5F983089F70A
:1058200089E080935D0B97CF80935D0B2091280DCD
:105830003091290D2115310519F040E050E008C0E4
:105840002091360D3091370D4091380D5091390D22
:105850002093550B3093560B4093570B5093580B96
:1058600046015701860E971EA11CB11C8092630B46
:105870009092640BA092650BB092660BE091230DA1
:10588000F091240DF093690BE093680BB0E00E9457
:105890001C50860E971EA81EB91E80926A0B90920D
:1058A0006B0BA0926C0BB0926D0B85E0EE0FFF1F9F
:1058B0008A95E1F7E150FE4FEF2FFF27E6958E0E18
:1058C0009F1EA11CB11C80925E0B90925F0BA09258
:1058D000600BB092610B2091250D3091260D2115A2
:1058E000310521F0A90160E070E008C04091320D5F
:1058F0005091330D6091340D7091350DD701C60173
:1059000088199909AA09BB09840F951FA61FB71FFB
:1059100004C0B695A79597958795CA95D2F78093B9
:10592000590B90935A0BA0935B0BB0935C0B853F84
:105930002FE09207A105B10510F48CE018C0853F57
:105940009F4FA105B10510F480E111C080913E0D7B
:1059500090913F0DA091400DB091410D80936A0B45
:1059600090936B0BA0936C0BB0936D0B80E28093C4
:10597000670B81E0DF91CF91FF90EF90DF90CF90A8
:10598000BF90AF909F908F900895EF92FF920F93EA
:105990001F93CF93DF93CDB7DEB764970FB6F8941C
:1059A000DEBF0FBECDBF7C01CB01BA018E010F5F00
:1059B0001F4F22E044E00E949A4BFC01019000201E
:1059C000E9F73197AF01481B590BBC01C70136DC21
:1059D000811102C0C7015FDCC70164960FB6F8945D
:1059E000DEBF0FBECDBFDF91CF911F910F91FF9012
:1059F000EF900895CF93DF93EC016115710559F095
:105A0000FB0101900020E9F73197AF01461B570BCE
:105A100015DC811102C0CE013EDCCE01DF91CF91B9
:105A20000895CF93DF93EC01FB01448155816081A0
:105A3000718104DC811102C0CE012DDCCE01DF9129
:105A4000CF9108956115710549F0FB010190002087
:105A5000E9F73197AF01461B570BF0CB80E0089573
:105A6000FB014481558160817181E8CBEF92FF9207
:105A70000F931F93CF93DF93EC017B018A01BA014F
:105A8000B6DB811103C0CE0106DC07C01D830C8389
:105A9000B701888199810E946A4BCE01DF91CF9135
:105AA0001F910F91FF90EF900895CF93DF93EC013A
:105AB0006115710551F0FB0101900020E9F7319764
:105AC000AF01461B570BD2DF01C0E5DBCE01DF91F2
:105AD000CF910895CF93DF93EC01FB0186179707D1
:105AE00051F0608171816115710521F0448155810A
:105AF000BDDF01C0D0DBCE01DF91CF910895FC0165
:105B0000808191810C94C949EF92FF920F931F936A
:105B1000CF93DF93CDB7DEB7A1970FB6F894DEBF72
:105B20000FBECDBF7C01CB01BA01F70111821082FB
:105B3000138212821582148242E0420F8E010F5F9F
:105B40001F4F0E949A4BBC01C701AFDFA1960FB651
:105B5000F894DEBF0FBECDBFDF91CF911F910F91A3
:105B6000FF90EF9008950F931F93CF93DF93CDB7DE
:105B7000DEB7A1970FB6F894DEBF0FBECDBF8C0184
:105B8000CB01BA01F80111821082138212821582B0
:105B9000148230E0AE014F5F5F4F0E940E4CBE0199
:105BA0006F5F7F4FC80181DFA1960FB6F894DEBF0B
:105BB0000FBECDBFDF91CF911F910F9108950F932D
:105BC0001F93CF93DF93CDB7DEB729970FB6F89425
:105BD000DEBF0FBECDBF8C01862FF801118210826F
:105BE000138212821582148250E0BE016F5F7F4FD4
:105BF00090E00E94394CBE016F5F7F4FC80155DFB6
:105C000029960FB6F894DEBF0FBECDBFDF91CF91BE
:105C10001F910F910895FC0111821082138212824C
:105C20001582148257CFFC01818D928D0895FC015D
:105C300084899589089527EF32E0FC013183208320
:105C4000FB014089518962897389FC014283538336
:105C5000648375830895DC01ED91FC91008CF18DD6
:105C6000E02D1994CF93DF931F92CDB7DEB76983F0
:105C7000DC01ED91FC910280F381E02D41E050E0E8
:105C8000BE016F5F7F4F19950F90DF91CF910895FF
:105C9000FC019485FB018485981303C081E0943056
:105CA00009F480E0089521E0FC018485843009F442
:105CB00020E0822F08950895CF93DF93EC01888D23
:105CC000843061F00E94C11CE88DF0E0EE0FFF1FF0
:105CD000E050F74F1182108284E0888FDF91CF91DE
:105CE0000895EF92FF921F93CF93DF93FC01208DD5
:105CF000243011F080E01CC07B01EC0110E0812F0A
:105D00000E94B21D811102C0188F05C08831E1F3D5
:105D10001F5F1430A1F7888D843061F3FD86EC8617
:105D20001A8E198E20E0A70162E00E94EC1C81E02F
:105D3000DF91CF911F91FF90EF9008950F931F93E4
:105D4000CF93DF931F92CDB7DEB78C01DC01ED91CD
:105D5000FC910480F581E02D1995892B51F0BE014D
:105D60006F5F7F4FF80184850E94441B898190E01A
:105D700002C08FEF9FEF0F90DF91CF911F910F9196
:105D80000895FC0184850C94BE1BCF93DF931F9272
:105D9000CDB7DEB741E050E0BE016F5F7F4FFC0141
:105DA00084850E94BE1B181619061CF4898190E098
:105DB00002C08FEF9FEF0F90DF91CF910895FC010C
:105DC0008485843011F00C948A1B80E090E0089563
:105DD000FC011382128288EE93E0A0E0B0E084839D
:105DE0009583A683B78383E093E09183808387EFD5
:105DF00092E097878687108A118A128A138A84E034
:105E0000808F0895CF92DF92EF92FF920F931F93AE
:105E1000CF93DF93CDB7DEB7E1970FB6F894DEBF2F
:105E20000FBECDBF7C016A0107EF12E01A83098320
:105E30001B821C821D821E82CE01099668AB79AB43
:105E4000C7DF1DA30CA31EA21FA218A619A680912E
:105E5000360B9091370BA091380BB091390B8CA772
:105E60009DA7AEA7BFA78B839C83AD83BE831886F7
:105E70001F82AE014C5D5F4F68A979A9CE010196E2
:105E80000E947D0F81309105B1F4D701ED91FC9115
:105E90000088F189E02D1BA70AA78EA19FA1A8A5C4
:105EA000B9A58CA79DA7AEA7BFA7A601BE01665D39
:105EB0007F4FC7011995E1960FB6F894DEBF0FBE6C
:105EC000CDBFDF91CF911F910F91FF90EF90DF90A9
:105ED000CF9008959B0190E00496982F8827642F17
:105EE000820F931F0C940B1B0F931F93CF93DF9381
:105EF0001F92CDB7DEB790E00496982F88278C01CB
:105F0000060F171F0E94AE1A8FE00E942F04812FE8
:105F10000E942F04802F0E942F0480E00E942F04F3
:105F200089830E94AC1A89810F90DF91CF911F91D4
:105F30000F9108950F931F93CF93DF931F921F929A
:105F4000CDB7DEB7FC01108D00E021E040E059E064
:105F50006DE370E0CE0101960E94C90589819A81A6
:105F60000E946A0460E270E0812FF1DA62E070E082
:105F7000812FBADF84FD21C062E070E0812FB4DFA1
:105F800083FF0AC048E162E070E0812FA3DF0E9436
:105F9000230480E090E01AC00E94230400E021E086
:105FA00040E059E06DE370E0CE0101960E94C90522
:105FB00089819A810E946A04D9CF40E162E070E051
:105FC000812F88DF0E94230481E090E00F900F90E2
:105FD000DF91CF911F910F910895CF93DF93C82F39
:105FE000D62F472F60E170E075DF4D2F61E170E043
:105FF0008C2FDF91CF916ECFCF92DF92EF92FF92F5
:106000000F931F93CF93DF931F921F92CDB7DEB7ED
:10601000FB01DC0157961C921E92569758961C91D4
:106020008281811109C08381811106C0848181111F
:1060300003C08581882341F14115510529F16A0189
:106040007F0100E021E040E059E06DE370E0CE0127
:1060500001960E94C90589819A810E946A04B7014C
:106060006E5F7F4F212F30E0922F882744E050E071
:10607000845F9B4F0E94DE1AB601812FAEDF0E9423
:10608000230481E090E002C080E090E00F900F9048
:10609000DF91CF911F910F91FF90EF90DF90CF9004
:1060A0000895FC018485843011F00C94B21D80E0C9
:1060B00008958F929F92AF92BF92CF92DF92EF920C
:1060C000FF920F931F93CF93DF93CDB7DEB72F9738
:1060D0000FB6F894DEBF0FBECDBF6C01E12CF12CE2
:1060E00038EE832E33E0932EA12CB12C03ED12E079
:1060F0001C821B828D829E82AF82B8861A8309839E
:10610000ED86CE010196CDDF81112DC0F6014481CF
:10611000558120E061E08E2D0E94EC1C00E021E022
:1061200040E059E06DE370E0CE010E960E94C90593
:106130008E859F850E946A0463E070E08E2DD4DE18
:10614000833121F462E070E08E2D01DA0E94230495
:10615000F60184819581F701EE0FFF1FE050F74FA4
:106160009183808308C0FFEFEF1AFF0A84E0E816EE
:10617000F10409F0BDCF2F960FB6F894DEBF0FBE25
:10618000CDBFDF91CF911F910F91FF90EF90DF90E6
:10619000CF90BF90AF909F908F900895CF93DF9353
:1061A000FC0124852430C9F0EC017BDF843181F0CF
:1061B000882371F0883161F08C3161F4E881F981D4
:1061C0000480F581E02DCE01199521E0892B19F489
:1061D00020E001C021E0822F01C080E0DF91CF915B
:1061E00008958F929F92AF92BF92EF92FF920F937A
:1061F0001F93CF93DF931F921F92CDB7DEB7DC01C1
:106200001C961C91143009F442C07C0100E021E08E
:1062100040E059E06DE370E0CE0101960E94C905AF
:1062200089819A810E946A0468E070E0812F8FD989
:106230000E9423040E94FE184B015C01C70131DF5C
:106240008823B9F061E070E080E090E00E94C61819
:106250000E94FE18DC01CB0188199909AA09BB0923
:10626000883E9340A105B10548F3F70184850E945B
:10627000C11CD7011C96EC911C97F0E0EE0FFF1F9C
:10628000E050F74F1182108284E01C968C930F909F
:106290000F90DF91CF911F910F91FF90EF90BF90E2
:1062A000AF909F908F9008954F925F926F927F92E0
:1062B0008F929F92AF92BF92CF92DF92EF92FF9216
:1062C0001F93CF93DF93CDB7DEB72D970FB6F8941A
:1062D000DEBF0FBECDBF7C0190E0A92E99E0B92EA4
:1062E00010E0C12CD12C28EE422E23E0522E612C3E
:1062F000712C33ED832E32E0932E1C821B824D8253
:106300005E826F8278869A8289821D87D5012D915F
:106310003D915D01F701848195812817390799F432
:10632000CE010196BEDE843159F0CE010196B9DE70
:106330008C3149F4CE01019642DD892B91F003C0E6
:10634000CC24C394D12C1F5F1430B9F6CD2869F446
:10635000D701ED91FC910480F581E02DC7011995DD
:1063600004C0CE0101963DDFEECF2D960FB6F89416
:10637000DEBF0FBECDBFDF91CF911F91FF90EF9099
:10638000DF90CF90BF90AF909F908F907F906F9055
:106390005F904F9008952F923F924F925F926F922D
:1063A0007F928F929F92AF92BF92CF92DF92EF92A5
:1063B000FF920F931F93CF93DF93CDB7DEB72E9746
:1063C0000FB6F894DEBF0FBECDBF7C016B015A0142
:1063D0006BDF00E019E020E0612C712C88EE282EA4
:1063E00083E0382E412C512C93ED892E92E0992E8A
:1063F0001C821B822D823E824F8258869A8289821D
:106400002D87F801419151918F01F7018481958188
:106410004817590739F4CE0101962E8742DE2E85A2
:106420008731E9F02F5F243019F7C3012E960FB69C
:10643000F894DEBF0FBECDBFDF91CF911F910F91BA
:10644000FF90EF90DF90CF90BF90AF909F908F9094
:106450007F906F905F904F903F902F900895A5018F
:10646000B601CE0101962E870E942C0E680E791E71
:106470002E85D8CFCF92DF92EF92FF920F931F938A
:10648000CF93DF936C017A018B01C0E0D0E0CE1591
:10649000DF0589F0D8016D918D01D601ED91FC9158
:1064A0000190F081E02DC6011995892B11F47E0130
:1064B00002C02196ECCFC701DF91CF911F910F91C0
:1064C000FF90EF90DF90CF900895FC011182108231
:1064D00013821282158214826115710549F0FB0145
:1064E00001900020E9F73197AF01461B570BBECA58
:1064F0000895DC01ED91FC910190F081E02D19945B
:106500006115710579F0FB0101900020E9F73197E1
:10651000AF01461B570BDC01ED91FC910280F3812A
:10652000E02D199480E090E008954F925F926F9271
:106530007F92EF92FF920F931F93CF93DF93CDB78C
:10654000DEB7A1970FB6F894DEBF0FBECDBF7C01BA
:10655000FA01CB0119A2223008F42AE08E010F5D66
:106560001F4F422E512C612C712CBF01A3019201AF
:106570000E942C50F901CA01015011096A3014F42B
:10658000605D01C0695CD8016C93232B242B252B03
:1065900061F7B801C701B4DFA1960FB6F894DEBF6A
:1065A0000FBECDBFDF91CF911F910F91FF90EF9064
:1065B0007F906F905F904F90089561E878E0A0CF52
:1065C0000F931F93CF93DF93EC019ADF8C01CE01E1
:1065D000F4DF800F911FDF91CF911F910F910895EC
:1065E0000F931F93CF93DF93EC01E881F981DB01D7
:1065F00014964D915C9115976D917C910280F38179
:10660000E02D19958C01CE01D8DF800F911FDF910D
:10661000CF911F910F91089573CFCF93DF93CDB793
:10662000DEB7C451D1400FB6F894DEBF0FBECDBF68
:10663000789484B5826084BD84B5816084BD85B55D
:10664000826085BD85B5816085BD80916E00816069
:1066500080936E001092810080918100826080930F
:106660008100809181008160809381008091800011
:106670008160809380008091B10084608093B1003C
:106680008091B00081608093B00080919100826021
:10669000809391008091910081608093910080911E
:1066A00090008160809390008091A100826080932F
:1066B000A1008091A10081608093A1008091A00041
:1066C00081608093A00080912101826080932101EC
:1066D000809121018160809321018091200181605E
:1066E0008093200180917A00846080937A00809169
:1066F0007A00826080937A0080917A008160809332
:106700007A0080917A00806880937A001092C100AC
:1067100061E08CE00E948A1861E08DE00E948A1896
:1067200062E082E00E948A1887E892E0909301027A
:106730008093000280916A00836080936A00EC9AE3
:1067400062E082E10E948A188FE392E090930B024C
:1067500080930A0280916900806C80936900EB9AB3
:1067600062E083E10E948A1887EF91E0909309022A
:106770008093080280916900806380936900EA9A9F
:10678000E091A70AF091A80A82E08083E091A30A31
:10679000F091A40A1082E091A50AF091A60A8FEC6C
:1067A00080831092AF0AE091AB0AF091AC0A86E0C8
:1067B0008083E091A90AF091AA0A80818061808398
:1067C000E091A90AF091AA0A808188608083E09113
:1067D000A90AF091AA0A808180688083E091A90AC1
:1067E000F091AA0A80818F7D808380E090E00E94F2
:1067F00018074B015C0160938709709388098093A7
:10680000890990938A098AE090E00E9418076B0139
:106810007C0160935F097093600980936109909394
:10682000620984E190E00E94180760933709709331
:1068300038098093390990933A09E8EDF8E020EBA4
:1068400038E008E818E081929192A192B192D901C2
:10685000CD92DD92ED92FD929D01D8016D937D93D5
:106860008D939D938D01B9E0E030FB0761F71092A5
:106870004F0B10924D0B10924A0B1092490B84E073
:106880008093480B0E94FE187B0161E08091480BC9
:106890000E948A1861E08091480B0E940D180E94A6
:1068A000E20600E021E040E950ED63E070E0CE0157
:1068B00001960E94C90589819A819093430B809328
:1068C000420B0E946A041AE08FEF0E942F041150BD
:1068D000D9F70E94230484E49BE00E946D0420E029
:1068E00030E0A90160E084E49BE00E948204182F5C
:1068F00080934E0B813049F00E94FE186E197F097B
:10690000613D774060F381E054C02AEA31E040E025
:1069100050E068E084E49BE00E94820482FF03C0B0
:1069200010934F0B0EC014E00E94360480934E0B60
:106930001150D1F78A3A11F082E03BC082E0809397
:106940004F0B80914F0B823021F0812C912C540100
:1069500005C0812C912CA12CE0E4BE2E20E030E07B
:10696000A90167E384E49BE00E948204A5019401ED
:1069700069E284E49BE00E94820480934E0B8823AA
:1069800049F00E94FE186E197F09613D774030F38F
:1069900088E00FC080914F0B823001F520E030E09D
:1069A000A9016AE384E49BE00E948204882341F009
:1069B00086E08093490B84E49BE00E942404CDC0D0
:1069C0000E943604807C803C19F483E080934F0B56
:1069D0000E9436040E9436040E94360484E49BE040
:1069E0000E94240400E021E040E059E06DE370E003
:1069F000CE0101960E94C90589819A819093430B2B
:106A00008093420B81E00E94962B882329F080918D
:106A1000730B882341F0A1C080E00E94962B88234D
:106A200009F49BC0F4CF8091670B803109F582E0B7
:106A30008093730B1092850B1092860B1092870B2C
:106A40001092880B8091680B9091690BA0E0B0E0E8
:106A500075E0880F991FAA1FBB1F7A95D1F7809305
:106A6000810B9093820BA093830BB093840B1FC078
:106A7000803209F072C083E08093730B40916A0BFF
:106A800050916B0B60916C0B70916D0B4093850B6B
:106A90005093860B6093870B7093880B21E83BE043
:106AA00080E59BE00E94DF1E882309F456C080E544
:106AB0009BE090938A0B8093890B81E08093720B0B
:106AC0001092740B1092750B1092760B1092770B3C
:106AD0001092780B1092790B10927A0B10927B0B1C
:106AE00010927C0B10927D0B10927E0B10927F0BFC
:106AF0001092800B65E273E087E99AE061DD6AE35A
:106B000073E0CE018B579F4FE0DCCB57DF4F88817E
:106B10009981C558D0400E944328811124C06CE55A
:106B200073E0CE010196D1DCBE016B577F4FCE01E1
:106B30008B599F4F70D8BE016F5F7F4FCE018B592D
:106B40009F4F0E948707CE018B599F4F0E947F2D38
:106B5000CE0101960E947F2D06C065E473E087E9AF
:106B60009AE02EDDCFC36BE673E0CE018B579F4FCB
:106B70000E94552DCB57DF4F88819981C558D04051
:106B80000E94432881111DC068E773E0CE01019681
:106B90009CDCBE016B577F4FCE018B599F4F3BD87A
:106BA000BE016F5F7F4FCE018B599F4F0E948707B9
:106BB000CE018B599F4F0E947F2DCE0101960E94DE
:106BC0007F2D00E010E00A5F1F4FB8016E57734F32
:106BD000CE018B579F4F0E946A2DCB57DF4F888184
:106BE0009981C558D0400E94432881111DC06FEC87
:106BF00073E0CE01019669DCBE016B577F4FCE0179
:106C00008B599F4F08D8BE016F5F7F4FCE018B59C4
:106C10009F4F0E948707CE018B599F4F0E947F2D67
:106C2000CE0101960E947F2D0E31110561F68091F3
:106C30000D0A811106C082EF99E0CAD881E08093E5
:106C40000D0A8FEA99E090933B0B80933A0B6CE22C
:106C500071E080E090E00E94C6180E94E206249A4B
:106C600000E021E040E059E06DE370E0CE010196E4
:106C70000E94C90589819A810E946A0460E880E0C7
:106C800090E00E940B1B65E58BE190E00E940B1BDE
:106C900065E58AE190E00E940B1B0E94230480E0DE
:106CA00090E49093150F8093140F80E090E69093FA
:106CB0001D0F80931C0F80E098E49093170F809332
:106CC000160F80E098E690931F0F80931E0F80E0D0
:106CD00090E59093190F8093180F80E090E79093C0
:106CE000210F8093200F80E098E590931B0F8093F5
:106CF0001A0F80E098E79093230F8093220F21E0F2
:106D000040E059E06DE370E0CE0101960E94C905B4
:106D100089819A810E946A0446E050E060E172E055
:106D200089E090E00E94DE1A87EF92E09A838983DF
:106D30001B821C821D821E8244E050E0BE016D5FFA
:106D40007F4F8FE090E00E94DE1A0E9423040091A2
:106D50003A0B10913B0BD80192961D921D921D92F9
:106D60001C929597F80116A217A210A611A69A9642
:106D70001D921D921D921C929D9780E69AEEA0E0B6
:106D8000B0E086AB97ABA0AFB1AF80EA9FE0A0E0E8
:106D9000B0E082AF93AFA4AFB5AFD801189686E04C
:106DA000FD01282F11922A95E9F79801225F3F4FA4
:106DB00094E1F90111929A95E9F7E0E1F2E001908E
:106DC0000D928A95E1F77801F2E4EF0EF11CD701FC
:106DD0001C920E94024C2FEC37E040E050E00E94F1
:106DE0000050DC01CB010196A11DB11DF801848387
:106DF0009583A683B78380839183A283B38398010D
:106E00002D5B3F4FCF5FDE4F39832883C150D14088
:106E1000C9010E945C2E64E470E0CF5FDE4F888180
:106E20009981C150D1400E94712E882309F4A7C1D5
:106E30000E94FE182B013C01CB5FDE4F19821882A5
:106E4000C550D140D12C43E0342E58EE852E53E06E
:106E5000952EA12CB12C62E0C62ED7018C918330E7
:106E600009F408C181111FC0F80184819581A681B0
:106E7000B7810196A11DB11D84839583A683B78335
:106E80000E94FE186419750986099709A5019401E5
:106E90000E942C50A90161E0C8010E94171481E0F2
:106EA000D7018C93C4C08430F1F4F80184819581BA
:106EB000A681B7810196A11DB11D84839583A68308
:106EC000B7830E94FE186419750986099709A50100
:106ED00094010E942C50A90163E0C8010E9417147C
:106EE000D701CC92A4C0813051F5F80142AD53AD29
:106EF00064AD75AD9E012F5F3F4FC8010E945512D2
:106F0000D82EF2E08F1393C089819A81AB81BC8126
:106F1000F80184839583A683B7830E94FE186419C1
:106F2000750986099709A50194010E942C50A901B1
:106F300063E0C8010E941714D701DC927EC0823042
:106F400009F075C0F80142AD53AD64AD75AD9E0159
:106F50002F5F3F4FC8010E945512D82EF5E08F13C6
:106F600060C0D7013C92F80182A193A1A4A1B5A170
:106F7000892B8A2B8B2B41F424E833E040E050E04E
:106F800022A333A344A355A3F80186A197A1A0A5EA
:106F9000B1A5892B8A2B8B2B61F482A193A1A4A18B
:106FA000B5A1B695A7959795879586A397A3A0A712
:106FB000B1A7F80182A593A5A4A5B5A5892B8A2B15
:106FC0008B2BA9F482A193A1A4A1B5A1AC01BD0111
:106FD00023E076956795579547952A95D1F7841BB9
:106FE000950BA60BB70B82A793A7A4A7B5A7F8018B
:106FF00086A197A1A0A5B1A586A797A7A0ABB1AB85
:1070000082A593A5A4A5B5A582AB93ABA4ABB5AB64
:1070100021E030E0CB5FDE4F39832883C550D1407B
:107020000CC036E0831303C0D7011C9206C0BFEF2B
:10703000DB1203C0F7011082D12CCB5FDE4F288119
:107040003981C550D1402130310509F406CF0E9465
:10705000FE18DC01CB0184199509A609B709F801CE
:1070600026A937A940AD51AD281739074A075B0754
:1070700008F0F3CECF5FDE4F88819981C150D140B7
:107080000E945C2EF80184819581A681B7810196CA
:10709000A11DB11D84839583A683B7830E94FE182A
:1070A000F801FE966083718382839383CB5FDE4F0A
:1070B00028813981C550D1402130310509F05FC0A8
:1070C00000E021E040E059E06DE370E0CE01019680
:1070D0000E94C90589819A810E946A0460913A0BD5
:1070E00070913B0B625F7F4FCE0101960E949E170D
:1070F00044E050E0BE016D5F7F4F8FE090E00E9462
:10710000DE1A60913A0B70913B0B6A5E7F4FCE01A5
:1071100001960E949E1744E050E0BE016D5F7F4FD4
:1071200081E090E00E94DE1A60913A0B70913B0B77
:107130006E5E7F4FCE0101960E949E1744E050E0A4
:10714000BE016D5F7F4F85E090E00E94DE1A0E94D5
:10715000230460913A0B70913B0B625E7F4FCE012E
:1071600001960E949E178B819C81AD81BE81809388
:10717000360B9093370BA093380BB093390B88EAFA
:107180009BE00E94593064E274E087E99AE044DAB7
:1071900087EF92E09A8389831B821C821D821E8264
:1071A00000E021E040E059E06DE370E0CE018B5952
:1071B0009F4F0E94C905A7968EAD9FADA7970E94CD
:1071C0006A0444E050E0BE016D5F7F4F8FE090E0C5
:1071D0000E94B01A0E94230467E97AE0CE0101966A
:1071E0000E94F01687E99AE0E8D968EB72E28DE830
:1071F0009BE00E94712E8091150A9091160AA09131
:10720000170AB091180A892B8A2B8B2B11F40E9434
:10721000AD0C8091840890918508A0918608B0916A
:1072200087088093150A9093160AA093170AB093C3
:10723000180A892B8A2B8B2B11F40E94AD0C4091DC
:107240008408509185086091860870918708409362
:10725000150A5093160A6093170A7093180A2AE0C9
:10726000CE0101960E94B32D6AE373E0CE018B59E3
:107270009F4F2BD9BE016F5F7F4FCE018B599F4F20
:107280000E948707CE018B599F4F0E947F2DCE0110
:1072900001960E947F2D0E94EA0B40913309509184
:1072A00034096091350970913609EDE3F2E029E186
:1072B0003AE081919191A191B1916C017D01C40E4F
:1072C000D51EE61EF71ED901CD92DD92ED92FD92FC
:1072D0009D01B2E0E935FB0761F782E394E090930A
:1072E000440C8093430C8BE597E09093460C80937D
:1072F000450C61E08DE00E940D18CE018B579F4F29
:107300000E947F2DEFEBF0E0EC0FFD1F3C96C35F7A
:10731000DE4FF983E883CD50D1400E94EA0B4091C3
:107320008709509188096091890970918A09809133
:10733000410A9091420AA091430AB091440A8417ED
:107340009507A607B70708F041C06DE474E087E928
:107350009AE036D94091870950918809609189094E
:1073600070918A0980E090E00E945A0740915F097D
:107370005091600960916109709162098AE090E022
:107380000E945A0740913709509138096091390994
:1073900070913A0984E190E00E945A074091870970
:1073A000509188096091890970918A094C505E4F0B
:1073B0006F4F7F4F4093410A5093420A6093430AB4
:1073C0007093440A87E99AE00E9476294091330934
:1073D0005091340960913509709136098091190AEC
:1073E00090911A0AA0911B0AB0911C0A48175907DC
:1073F0006A077B0708F4D0C587E99AE00E945D29F7
:107400004AE060E0CE0101960E94DF2D6AE574E05B
:10741000CE018B599F4F59D8BE016F5F7F4FCE0170
:107420008B599F4F0E94112DBC0187E99AE0D8D853
:10743000CE018B599F4F0E947F2DCE0101960E9455
:107440007F2D80902F0990903009A0903109B09045
:107450003209C0902B09D0902C09E0902D09F090B2
:107460002E090E94FE18DC01CB0188199909AA098E
:10747000BB09C816D906EA06FB0618F046015701F3
:1074800002C04C015D0180922B0990922C09A092C0
:107490002D09B0922E09409027095090280960903C
:1074A000290970902A09C0902309D0902409E090FE
:1074B0002509F09026090E94FE18DC01CB018419F1
:1074C0009509A609B709C816D906EA06FB0618F0F9
:1074D0001601270102C01C012D01209223093092C0
:1074E0002409409225095092260920911F093091C4
:1074F00020094091210950912209CF5FDE4F288356
:1075000039834A835B83C150D140C0901B09D0901E
:107510001C09E0901D09F0901E090E94FE18DC0174
:10752000CB01CF5FDE4F288139814A815B81C15019
:10753000D140821B930BA40BB50BC816D906EA06E3
:10754000FB0618F03601870102C03C018D016092F4
:107550001B0970921C0900931D0910931E09C0900D
:107560003309D0903409E0903509F090360935E4BC
:10757000C31636EFD30638E5E306F30608F4F9C47C
:10758000B401C5010E94D54E20E030E04AE754E442
:107590000E94364F9B01AC0164EA73E986E59FE4E3
:1075A0000E9498484B015C01B101C2010E94D54E76
:1075B00020E030E04AEF54E40E94364F9B01AC01DA
:1075C00064EA73E986E59FE40E949848CF5FDE4F46
:1075D000688379838A839B83C150D140B301C801FA
:1075E0000E94D54E20E030E04AEF54E40E94364F2E
:1075F0009B01AC0164EA73E986E59FE40E94984828
:10760000CB5FDE4F688379838A839B83C550D140EB
:1076100063E878E0CE018B579F4F0E9465322AE0E5
:10762000B701A601CE0101960E94B32DBE016F5F86
:107630007F4FCE018B579F4F0E94302DCE01019678
:107640000E947F2D62E674E0CE018B579F4F0E940F
:10765000222D409187095091880960918909709184
:107660008A092AE0CE0101960E94B32DBE016F5F08
:107670007F4FCE018B579F4F0E94302DCE01019638
:107680000E947F2D62E674E0CE018B579F4F0E94CF
:10769000222D80912B0990912C09A0912D09B09158
:1076A0002E09892B8A2B8B2B41F469EA75E0CE01D8
:1076B0008B579F4F0E94222D13C022E0B501A401D9
:1076C000CE0101960E94842DBE016F5F7F4FCE01D7
:1076D0008B579F4F0E94302DCE0101960E947F2D27
:1076E00062E674E0CE018B579F4F0E94222D40919D
:1076F0005F095091600960916109709162092AE007
:10770000CE0101960E94B32DBE016F5F7F4FCE0167
:107710008B579F4F0E94302DCE0101960E947F2DE6
:1077200062E674E0CE018B579F4F0E94222D80911C
:10773000230990912409A0912509B0912609892B4C
:107740008A2B8B2B41F469EA75E0CE018B579F4F52
:107750000E94222D19C022E0CF5FDE4F488159815F
:107760006A817B81C150D140CE0101960E94842D57
:10777000BE016F5F7F4FCE018B579F4F0E94302D10
:10778000CE0101960E947F2D62E674E0CE018B57F8
:107790009F4F0E94222D40913709509138096091E6
:1077A000390970913A092AE0CE0101960E94B32D61
:1077B000BE016F5F7F4FCE018B579F4F0E94302DD0
:1077C000CE0101960E947F2D62E674E0CE018B57B8
:1077D0009F4F0E94222D80911B0990911C09A0911E
:1077E0001D09B0911E09892B8A2B8B2B41F469EA64
:1077F00075E0CE018B579F4F0E94222D19C022E0C9
:10780000CB5FDE4F488159816A817B81C550D14071
:10781000CE0101960E94842DBE016F5F7F4FCE0185
:107820008B579F4F0E94302DCE0101960E947F2DD5
:1078300062E674E0CE018B579F4F0E94222D40914B
:107840008709509188096091890970918A09440FCC
:10785000551F661F771F80915F0990916009A09165
:107860006109B0916209481B590B6A0B7B0B80912F
:10787000370990913809A0913909B0913A09481B0C
:10788000590B6A0B7B0B2AE0CE0101960E94B32DA7
:10789000BE016F5F7F4FCE018B579F4F0E94302DEF
:1078A000CE0101960E947F2D62E674E0CE018B57D7
:1078B0009F4F0E94222DCF5FDE4F288139814A8160
:1078C0005B81C150D140C501B4010E943348CB5FF8
:1078D000DE4F288139814A815B81C550D1400E94A9
:1078E00033482B013C0120E030E0A9010E942C49E3
:1078F0001816A4F422E0B301A201CE0101960E9461
:10790000842DBE016F5F7F4FCE018B579F4F0E942A
:10791000302DCE0101960E947F2D07C069EA75E0E7
:10792000CE018B579F4F0E94222DBE016B577F4F78
:10793000CE018B599F4F0E940B2E6BE673E0CE0158
:1079400001960E946532BE016B597F4FCE010196B0
:107950000E948707CE0101960E947F2DCE018B5990
:107960009F4F0E947F2D0E941F27811102C164E654
:1079700074E087E99AE00E940C330E941F2781116E
:10798000CCC06091430C7091440C8091AE0B9091EF
:10799000AF0B4091450C5091460CDC01ED91FC91F0
:1079A0006115710521F00684F785E02D16C0048469
:1079B000F585E02D27EF32E03A83298300913F0CD3
:1079C0001091400C2091410C3091420C0B831C8390
:1079D0002D833E83BE016F5F7F4F199581309105E6
:1079E00009F094C09093310C8093300C87E0E6E36B
:1079F000F2E0DE01119601900D928A95E1F7FE0109
:107A00003196A5EBBBE0CE01089621912D93E817A6
:107A1000F907D9F782E08093BC0B1092BD0B8FE081
:107A20008093BE0B4FE050E060EB7BE08CE194E094
:107A30000E94BA25AC014550510960EB7BE080E122
:107A40000E94DB250E94FE186093320C7093330C69
:107A50008093340C9093350C6093360C7093370CF4
:107A60008093380C9093390C8091AE0B9091AF0BB2
:107A7000DC01ED91FC910480F581E02D1995892BB5
:107A8000C1F40E94FE180091360C1091370C209121
:107A9000380C3091390CDC01CB01801B910BA20B0F
:107AA000B30B88399A43A105B105F0F28CEF9FEF33
:107AB0001DC0CE018B599F4F0E944C260497D1F4D4
:107AC0008091B30B811111C00E94FE186093360C97
:107AD0007093370C8093380C9093390C10923A0CB9
:107AE00010924A0C1092490C18C090E090934A0CE6
:107AF0008093490C8091AE0B9091AF0BDC01ED911E
:107B0000FC910288F389E02D19950EC08EEF9FEF4E
:107B100090934A0C8093490C07C062E874E087E9AF
:107B20009AE00E94E03225C06CE874E087E99AE0B0
:107B30000E940C33C090490CD0904A0C0D2C000CC4
:107B4000EE08FF08F7FE0EC06DE287E99AE00E949A
:107B5000793244275527BA014C195D096E097F090E
:107B60002AE003C02AE0B701A60187E99AE00E9453
:107B700095320E941F27882309F478C10E94FE18BD
:107B80006B017C018091360C9091370CA091380CE0
:107B9000B091390CA7019601281B390B4A0B5B0BDE
:107BA000DA01C90189399A43A105B105A8F4809188
:107BB000320C9091330CA091340CB091350CA7018C
:107BC0009601281B390B4A0B5B0BDA01C901893975
:107BD0009A43A105B105C8F120913A0C8091AE0BF2
:107BE0009091AF0B222371F02CEF3FEF30934A0CB2
:107BF0002093490CDC01ED91FC910288F389E02D82
:107C0000199534C120EC2093B00B1092B10BDC011C
:107C1000ED91FC910280F381E02D42E050E060EBB9
:107C20007BE01995C092320CD092330CE092340C68
:107C3000F092350CC092360CD092370CE092380C92
:107C4000F092390C81E080933A0C8091AE0B9091C8
:107C5000AF0BDC01ED91FC910480F581E02D1995CD
:107C6000892B09F403C1CE0101960E944C268C0198
:107C7000892B09F4FBC0C092360CD092370CE092ED
:107C8000380CF092390CB091B00BCC5EDE4FB8835B
:107C9000C451D1408B2F807F803309F0CCC0E0915C
:107CA0003B0CF0913C0CC55FDE4FF983E883CB5071
:107CB000D140EF2B09F4DAC02DB73EB7C15FDE4FDC
:107CC00039832883CF50D1404981242E312CF101B2
:107CD000E255F44F838190E0982F88272481BC01DE
:107CE000620F711DCB010196ADB7BEB7A81BB90BD2
:107CF0000FB6F894BEBF0FBEADBF1196C75FDE4F83
:107D0000B983A883C950D14020E030E0C1012617D3
:107D10003707B1F0F901E80FF91FE255F44F55812B
:107D2000C75FDE4FE881F981C950D1405193C75FE9
:107D3000DE4FF983E883C950D1402F5F3F4FE7CF33
:107D4000FD01E20FF31F1082CC5EDE4FF881C451BB
:107D5000D140F670C75FDE4FF883C950D140F23092
:107D600009F048C050E0B901640F751FFB01E255EE
:107D7000F44F858190E0982F8827E6811C012E0E14
:107D8000311C8BEF9FEF841B950B821B930BAC0177
:107D9000400F511F6B54744FCD01C55FDE4FE8811A
:107DA000F981CB50D140199580E48093B00BC75F27
:107DB000DE4F2881C950D1402093B10B3092B20BD5
:107DC0002092B30B8091AE0B9091AF0BDC01ED9143
:107DD000FC910280F381E02D44E050E060EB7BE019
:107DE0001995C092320CD092330CE092340CF09280
:107DF000350C15C04DEF5FEF42195309421B530B71
:107E0000400F511F220D331DB9016D54744FCD0128
:107E1000C55FDE4FE881F981CB50D1401995C15F34
:107E2000DE4F28813981CF50D1400FB6F8943EBF44
:107E30000FBE2DBF1BC0803CA9F480ED8093B00B1A
:107E40001092B10B8091AE0B9091AF0BDC01ED91D4
:107E5000FC910280F381E02D42E050E060EB7BE09A
:107E6000199504C0803D11F410923A0C6091870975
:107E7000709188098091890990918A090E94D54E54
:107E800020E030E04AE754E40E94984804E21FE012
:107E900022E041E00E949A4B88E994E00E945E2A29
:107EA00060915F0970916009809161099091620908
:107EB0000E94D54E20E030E04AEF54E40E949848FA
:107EC00022E041E00E949A4B84EB94E00E945E2AFB
:107ED00060913709709138098091390990913A0978
:107EE0000E94D54E20E030E04AEF54E40E949848CA
:107EF00022E041E00E949A4B83ED94E00E945E2ACA
:107F000022E041E0C501B4010E949A4B8DEE94E05D
:107F10000E945E2A22E041E0CF5FDE4F68817981D6
:107F20008A819B81C150D1400E949A4B89E095E0A3
:107F30000E945E2A22E041E0CB5FDE4F68817981BA
:107F40008A819B81C550D1400E949A4B88E295E07E
:107F50000E945E2A22E041E0C301B2010E949A4BD6
:107F600082E495E00E945E2ACE018B579F4F0E94CB
:107F70007F2D8091330990913409A0913509B091FA
:107F800036090A96A11DB11D8093190A90931A0A09
:107F9000A0931B0AB0931C0A4091330950913409F5
:107FA000609135097091360980911D0A90911E0AE1
:107FB000A0911F0AB091200A481759076A077B074A
:107FC00008F443C087E99AE00E945D294AE061E035
:107FD000CE0101960E94DF2D6AE574E0CE018B5937
:107FE0009F4F0E946532BE016F5F7F4FCE018B595C
:107FF0009F4F0E94112DBC0187E99AE00E94F03248
:10800000CE018B599F4F0E947F2DCE0101960E9479
:108010007F2D61E081E00E94C2070E94AD0C0E94AA
:10802000EA0B8091330990913409A0913509B09100
:108030003609885A9D4FAF4FBF4F80931D0A9093CA
:108040001E0AA0931F0AB093200A40913309509151
:10805000340960913509709136098091210A909117
:10806000220AA091230AB091240A481759076A07E7
:108070007B0708F43FC087E99AE00E945D294AE047
:1080800062E0CE0101960E94DF2D6AE574E0CE0128
:108090008B599F4F0E946532BE016F5F7F4FCE01AB
:1080A0008B599F4F0E94112DBC0187E99AE00E94D5
:1080B000F032CE018B599F4F0E947F2DCE01019649
:1080C0000E947F2D61E082E00E94C2078091330907
:1080D00090913409A0913509B0913609805F914F94
:1080E000AF4FBF4F8093210A9093220AA093230A97
:1080F000B093240A409133095091340960913509B5
:10810000709136098091250A9091260AA091270A3C
:10811000B091280A481759076A077B0708F43FC03F
:1081200087E99AE00E945D294AE063E0CE0101966A
:108130000E94DF2D6AE574E0CE018B599F4F0E94AB
:108140006532BE016F5F7F4FCE018B599F4F0E94FA
:10815000112DBC0187E99AE00E94F032CE018B59C3
:108160009F4F0E947F2DCE0101960E947F2D60E0DF
:1081700083E00E94C2078091330990913409A09155
:108180003509B091360980589E4AAE4FBF4F809353
:10819000250A9093260AA093270AB093280A4091B3
:1081A00033095091340960913509709136098091F5
:1081B000290A90912A0AA0912B0AB0912C0A4817FB
:1081C00059076A077B0708F43FC087E99AE00E94D5
:1081D0005D294AE064E0CE0101960E94DF2D6AE548
:1081E00074E0CE018B599F4F0E946532BE016F5FD4
:1081F0007F4FCE018B599F4F0E94112DBC0187E903
:108200009AE00E94F032CE018B599F4F0E947F2D41
:10821000CE0101960E947F2D60E084E00E94C2079B
:108220008091330990913409A0913509B0913609B4
:108230008058954CA64FBF4F8093290A90932A0AE5
:10824000A0932B0AB0932C0A409133095091340922
:10825000609135097091360980912D0A90912E0A0E
:10826000A0912F0AB091300A481759076A077B0777
:10827000F0F187E99AE00E945D294AE065E0CE01CD
:1082800001960E94DF2D6AE574E0CE018B599F4F65
:108290000E946532BE016F5F7F4FCE018B599F4FA9
:1082A0000E94112DBC0187E99AE00E94F032CE01B4
:1082B0008B599F4F0E947F2DCE0101960E947F2DEA
:1082C00060E085E00E94C2078091330990913409F3
:1082D000A0913509B09136099357A84DBF4F8093AF
:1082E0002D0A90932E0AA0932F0AB093300A409142
:1082F00033095091340960913509709136098091A4
:10830000310A9091320AA091330AB091340A481789
:1083100059076A077B07D0F187E99AE00E945D2937
:108320004AE066E0CE0101960E94DF2D6AE574E026
:10833000CE018B599F4F0E946532BE016F5F7F4F08
:10834000CE018B599F4F0E94112DBC0187E99AE005
:108350000E94F032CE018B599F4F0E947F2DCE019B
:1083600001960E947F2D8091330990913409A0914C
:108370003509B09136094E96A11DB11D8093310A81
:108380009093320AA093330AB093340A80911A0969
:10839000882311F061E001C060E08CE00E940D18BC
:1083A00088EA9BE00E94543160E0E62E69E0F62EF8
:1083B00010E073EDC72E72E0D72E1C821B8228EED0
:1083C00033E040E050E02D833E834F835887DA82CC
:1083D000C9821D87D7012D913D917D018091AC0B04
:1083E0009091AD0B28173907E9F5CE0101960E944F
:1083F0005130873111F08C31A9F5CE0101960E94E0
:10840000DF2E892B79F18B819C81CA50DF4F9983B4
:108410008883C65FD0408D819E81AF81B885C8506A
:10842000DF4F88839983AA83BB83C85FD040898547
:108430009A85AB85BC85C450DF4F88839983AA8316
:10844000BB83CC5FD04083ED92E0CC50DF4F99836B
:108450008883C45FD0408D85C050DF4F8883C05073
:10846000D14023C01F5F143009F0A7CFCA50DF4F9F
:1084700019821882C65FD04028EE33E040E050E019
:10848000C850DF4F288339834A835B83C85FD0405D
:1084900083ED92E0CC50DF4F99838883C45FD04056
:1084A000C050DF4F1883C050D140C050DF4F88818B
:1084B000C050D140843009F419C400E010E0CE016E
:1084C0008C509F4F0E94CE30882309F404C4CE0103
:1084D0008C509F4F0E94DF2E892B89F3CE018C5048
:1084E0009F4F0E94C52EE1E0F0E0EC0FFD1FE00F72
:1084F000F11F8A3059F08D3049F080830F5F1F4F94
:1085000004361105E4F203E610E0D9CF1082BE0173
:108510006F5F7F4F87E99AE00E94E0326EE575E079
:10852000CE0101960E94804B892B09F430C365E689
:1085300075E0CE018C509F4F0E94E03265E775E0F8
:10854000CE018C509F4F0E94E0326DE875E0CE0165
:108550008C509F4F0E94E0326FE975E0CE018C5045
:108560009F4F0E94E032CE018C509F4F0E94DD321F
:108570006BEA75E0CE018C509F4F0E94E0326BEBAE
:1085800075E0CE018C509F4F0E94E03262EC75E0A6
:10859000CE018C509F4F0E94E03268EE75E0CE0114
:1085A0008C509F4F0E940C330E94EA0B409133097C
:1085B000509134096091350970913609CE018C5083
:1085C0009F4F0E94762965EF75E0CE018C509F4F3A
:1085D0000E940C33BE016C507F4FCE018B599F4FD0
:1085E0000E94FB09CE018B599F4F0E949F0B6AE0AE
:1085F00076E0CE018C509F4F0E94E0320E94FE1820
:1086000028EE33E040E050E00E942C5069017A01EE
:10861000BA01A90187E99AE00E947629C701B6014B
:1086200020E13EE040E050E00E942C5049015A0118
:1086300030930D0920930C095CE3452E512C612CDD
:10864000712CA30192010E942C5030930B092093AE
:108650000A09C701B601A30192010E942C50709330
:10866000090960930809B40187E99AE00E9460292A
:1086700060910A0970910B0987E99AE00E946029CC
:10868000609108097091090987E99AE00E946029C0
:10869000BE016C507F4FCE018B599F4F0E94FB094A
:1086A000CE018B599F4F0E949F0B60E276E0CE0176
:1086B0008C509F4F0E94E03280902F09909030099B
:1086C000A0903109B0903209C0902B09D0902C09AC
:1086D000E0902D09F0902E090E94FE18DC01CB01DC
:1086E00088199909AA09BB09C816D906EA06FB0622
:1086F00018F08601970102C08C019D0100932B099F
:1087000010932C0920932D0930932E09C09016093F
:10871000D0901709E0901809F090190965E276E009
:10872000CE018B579F4FCF5EDE4F2883C151D14082
:10873000CE5EDE4F3883C251D1400E946532BE0109
:108740006C507F4FCE018B599F4F0E94FB0948EE22
:10875000A42E43E0B42ECF5EDE4F2881C151D1401C
:10876000CE5EDE4F3881C251D14047E859E0BE01AC
:108770006B577F4FCE018B599F4F0E941F0ACE012E
:108780008B579F4F0E947F2D80902709909028093A
:10879000A0902909B0902A09C0902309D0902409FB
:1087A000E0902509F09026090E94FE18DC01CB011B
:1087B00088199909AA09BB09C816D906EA06FB0651
:1087C00018F08601970102C08C019D0100932309D6
:1087D000109324092093250930932609C09012098B
:1087E000D0901309E0901409F09015096BE276E03F
:1087F000CE018B579F4FCF5EDE4F2883C151D140B2
:10880000CE5EDE4F3883C251D1400E946532BE0138
:108810006C507F4FCE018B599F4F0E94FB0930ED6A
:10882000A32E37E0B32ECF5EDE4F2881C151D14059
:10883000CE5EDE4F3881C251D1404FE559E0BE01D6
:108840006B577F4FCE018B599F4F0E941F0ACE015D
:108850008B579F4F0E947F2D80901F099090200979
:10886000A0902109B0902209C0901B09D0901C094A
:10887000E0901D09F0901E090E94FE18DC01CB015A
:1088800088199909AA09BB09C816D906EA06FB0680
:1088900018F08601970102C08C019D0100931B090D
:1088A00010931C0920931D0930931E09C0900E09D6
:1088B000D0900F09E0901009F090110962E376E082
:1088C000CE018B579F4FCF5EDE4F2883C151D140E1
:1088D000CE5EDE4F3883C251D1400E946532BE0168
:1088E0006C507F4FCE018B599F4F0E94FB0920EDAA
:1088F000A22E27E0B22ECF5EDE4F2881C151D1409B
:10890000CE5EDE4F3881C251D14047E359E0BE010F
:108910006B577F4FCE018B599F4F0E941F0ACE018C
:108920008B579F4F0E947F2D66E376E0CE018C50DF
:108930009F4F0E94E032BE016C507F4FCE018951A3
:108940009F4F0E94FB0966E476E087E99AE00E9467
:10895000E03241E069E776E0CE018B599F4F0E94FB
:108960005427A9968EAD9FADA9979093C40C809380
:10897000C30CAD968CAD9DADAEADBFADAD97809344
:10898000C50C9093C60CA093C70CB093C80CE1968D
:108990008CAD9DADAEADBFADE1978093C90C90930A
:1089A000CA0CA093CB0CB093CC0C8DE0E5E6F0E0C4
:1089B000EC0FFD1F3C96ADECBCE001900D928A954A
:1089C000E1F7C258DF4FE881F981CE57D040F093EC
:1089D000DB0CE093DA0C309721F08581823008F0CF
:1089E00089C161E576E0CE0189519F4F0E94E03256
:1089F00083E8E82E82E0F82E9EE2D92E66E576E046
:108A000087E99AE00E94E0320091DA0C1091DB0CC9
:108A1000D80115968C91823008F480C0F8018285C7
:108A20009385A485B5858F719927AA27BB27892BA4
:108A30008A2B8B2B09F072C040E250E0BE016B59CB
:108A40007F4FC8010E94B622803209F067C0A69607
:108A50008FADA697882309F461C0853E69F38E32F5
:108A600059F3E1968FADE19783FDE6CFCC55DF4F0B
:108A700019821882C45AD040CE55DF4FF982E8825D
:108A8000C25AD040C955DF4F1882C75AD040FE01A4
:108A9000EB59FF4F80E090E02191203291F0983027
:108AA00041F4AAEDB0E0AC0FBD1FA80FB11DDC92E0
:108AB0008F5FAAEDB0E0AC0FBD1FA80FB11D2C93C6
:108AC0008F5F9F5F9B3041F7EAEDF0E0EC0FFD1FF9
:108AD000E80FF11D10826091DA0C7091DB0C21E03F
:108AE000AE0146525F4FCE018E559F4F0E94B92373
:108AF0008823A1F0BE016E557F4FCE018B579F4F4B
:108B00000E94EE05AE0146525F4FBE016B577F4F8C
:108B1000CE0181549F4F0E94640605C0CE0181544E
:108B20009F4F0E945106C852DF4FE881F981C85D0E
:108B3000D040309719F08581811110C06DE576E045
:108B400087E99AE00E94E03267E676E0CE0189513B
:108B50009F4F0E94E03281EC9CE0BBC06DE676E066
:108B600087E99AE00E94E032C852DF4FE881F9813C
:108B7000C85DD040309709F4C6C08581823008F4C2
:108B8000C2C0CE0181549F4F0E943F0637CF65E798
:108B900076E0CE010196B4D5892B09F456C06BE777
:108BA00076E0CE010196ACD5DC011C92BE016A5F75
:108BB0007F4F87E99AE00E94E03241E0BE016A5FA0
:108BC0007F4FCE018B599F4F0E945427A9968EAD9F
:108BD0009FADA9979093A90C8093A80CAD968CADEE
:108BE0009DADAEADBFADAD978093AA0C9093AB0C8D
:108BF000A093AC0CB093AD0CE1968CAD9DADAEAD39
:108C0000BFADE1978093AE0C9093AF0CA093B00CE6
:108C1000B093B10C8DE0E5E6F0E0EC0FFD1F3C9663
:108C2000A2EBBCE001900D928A95E1F7C258DF4FAC
:108C3000E881F981CE57D040F093C00CE093BF0C8F
:108C4000309719F0858181111BC061E876E0CE0173
:108C50008C509F4F0E94E03265E775E0CE018C504A
:108C60009F4F0E94E032CE018C509F4F0E94DD3218
:108C700068E976E0CE018C509F4F0E94E0322BC015
:108C800061EB76E087E99AE00E94E03265E675E004
:108C9000CE018C509F4F0E94E03269EB76E0CE010E
:108CA0008C509F4F0E94E032CE018C509F4F0E940B
:108CB000DD3286EA9CE00E94B006181619063CF4E4
:108CC000682FCE018C509F4F0E947932F2CF86EAF6
:108CD0009CE00E943F0661E070E080E090E00E942E
:108CE000C618CE018C509F4F0E94F1300E947B1617
:108CF0000C948D391682178210861186128613867F
:108D0000148615866ECE62ED76E0CE0189519F4FB6
:108D10000E940C33C35FDE4F68817981CD50D14012
:108D2000CE0189519F4F0E940C33C35FDE4F688193
:108D30007981CD50D14087E99AE00E940C336EEDE5
:108D400076E0CE0189519F4F0E940C3366EE75E0AC
:108D5000CE0189519F4F0E940C33C35FDE4F688163
:108D60007981CD50D140CE0189519F4F0E940C3363
:108D700060EE76E0CE0189519F4F0E940C3365EE84
:108D800076E0CE0189519F4F0E94E032FACECF9318
:108D9000DF93C2E8DCE02697CE010E947F2D8CE0B5
:108DA000CE35D807C1F7C6EADCE02697CE010E948F
:108DB0007F2D8CE0C238D807C1F78CED9CE0DF91A5
:108DC000CF910C947F2DCF92DF92EF92FF92CF93B1
:108DD000DF93E8EEFCE0C7EFD2E0D183C0831282DC
:108DE000138214821582E7E9FAE01382128288EE78
:108DF000C82E83E0D82EE12CF12CC482D582E682E5
:108E0000F78283E792E09183808385EC90E09587F9
:108E1000848784EC90E09787868780EC90E0918B44
:108E2000808B81EC90E0938B828B82EC90E0958B31
:108E3000848B86EC90E0978B868B118E128E138E2E
:108E4000148EEEEEFCE0D183C08312821382148272
:108E50001582E4EFFCE0D183C08312821382148276
:108E60001582EAEFFCE0D183C08312821382148260
:108E70001582E0E0FDE0D183C08312821382148268
:108E80001582E4E3FBE0D183C08312821382148253
:108E90001582ECE3FBE0D183C0831282138214823B
:108EA0001582E6E0FDE0D183C08312821382148232
:108EB0001582ECE0FDE0D183C0831282138214821C
:108EC0001582E2E4FBE080E580831182E4E4FBE0CC
:108ED000158216821186138682E090E0A0E0B0E051
:108EE00084879587A687B78713A215A614A683E85B
:108EF00092E093A782A717A6E2EEFCE0D183C0839D
:108F0000128213821482158263E878E08CED9CE073
:108F10000E94653281EC9CE00E94510686EA9CE04A
:108F20000E94510663E078E082E89CE00E9465328E
:108F300060E178E088E89CE00E9465326AE178E0D0
:108F40008EE89CE00E94653261E278E084E99CE072
:108F50000E94653269E278E08AE99CE00E9465320D
:108F600060E378E080EA9CE00E94653268E378E0A4
:108F70008EE59CE00E9465326EE378E084E69CE03A
:108F80000E9465326BE478E08AE69CE00E946532DC
:108F900065E578E080E79CE00E94653260E678E075
:108FA00086E79CE00E9465326AE678E08CE79CE008
:108FB0000E946532E8E5FCE0D183C08380EC8283C7
:108FC00088EA838382EB848381E68583EBE4FCE09B
:108FD00013821282C482D582E682F78283ED92E008
:108FE0009183808384E08487D0933E0CC0933D0CB2
:108FF00010923F0C1092400C1092410C1092420CB7
:109000008FEF9FEF90934A0C8093490CF093AF0B36
:10901000E093AE0B1092480C1092470CE8EAFBE08C
:10902000138212828BE892E09183808380E590E046
:10903000958384838DE89BE0DF91CF91FF90EF9043
:10904000DF90CF900C94E82EEE0FFF1F881F8BBF90
:109050000790F691E02D19946927962769277827BC
:109060008727782708955058BB27AA270ED078C79E
:1090700069D730F06ED720F031F49F3F11F41EF421
:109080005EC70EF4E095E7FB54C7E92F7AD780F36B
:10909000BA17620773078407950718F071F49EF5F5
:1090A00092C70EF4E0950B2EBA2FA02D0B01B9013B
:1090B00090010C01CA01A0011124FF27591B99F04E
:1090C000593F50F4503E68F11A16F040A22F232F5A
:1090D000342F4427585FF3CF469537952795A795AA
:1090E000F0405395C9F77EF41F16BA0B620B730B51
:1090F000840BBAF09150A1F0FF0FBB1F661F771FC2
:10910000881FC2F70EC0BA0F621F731F841F48F476
:10911000879577956795B795F7959E3F08F0B3CFFC
:109120009395880F08F09927EE0F979587950895E6
:109130000CD016C70ED740F005D730F021F45F3FB2
:1091400019F0F7C6511140C7FAC61BD798F39923F7
:10915000C9F35523B1F3951B550BBB27AA276217FB
:109160007307840738F09F5F5F4F220F331F441F40
:10917000AA1FA9F333D00E2E3AF0E0E830D0915078
:109180005040E695001CCAF729D0FE2F27D0660F65
:10919000771F881FBB1F261737074807AB07B0E8A4
:1091A00009F0BB0B802DBF01FF2793585F4F2AF0BA
:1091B0009E3F510568F0BDC607C75F3FECF3983E80
:1091C000DCF3869577956795B795F7959F5FC9F717
:1091D000880F911D9695879597F90895E1E0660FA0
:1091E000771F881FBB1F621773078407BA0720F019
:1091F000621B730B840BBA0BEE1F88F7E095089582
:10920000C8D688F09F5790F0B92F9927B751A0F092
:10921000D1F0660F771F881F991F1AF0BA95C9F70A
:1092200012C0B13081F0CFD6B1E00895CCC6672F1F
:10923000782F8827B85F39F0B93FCCF386957795BA
:109240006795B395D9F73EF49095809570956195A3
:109250007F4F8F4F9F4F0895E5D508F48FEF089506
:10926000E1D5880B990B0895CF93DF938230910558
:1092700010F482E090E0E091300FF091310F20E0A7
:1092800030E0C0E0D0E0309711F1408151814817C3
:109290005907C0F04817590761F4828193812097DC
:1092A00019F09B838A832BC09093310F8093300FEA
:1092B00026C02115310519F04217530718F49A01F9
:1092C000BE01DF01EF010280F381E02DDCCF21152B
:1092D000310509F1281B390B2430310590F4129621
:1092E0008D919C9113976115710521F0FB0193837A
:1092F000828304C09093310F8093300FFD0132962A
:1093000044C0FD01E20FF31F819391932250310974
:109310002D933C933AC020912E0F30912F0F232B89
:1093200041F420912E0230912F0230932F0F209381
:109330002E0F20912C0230912D022115310541F480
:109340002DB73EB74091300250913102241B350BAE
:10935000E0912E0FF0912F0FE217F307A0F42E1BD0
:109360003F0B2817390778F0AC014E5F5F4F241789
:10937000350748F04E0F5F1F50932F0F40932E0F6D
:109380008193919302C0E0E0F0E0CF01DF91CF91B3
:1093900008950F931F93CF93DF93009709F48CC028
:1093A000FC013297138212820091300F1091310F1D
:1093B0000115110581F420813181820F931F2091C5
:1093C0002E0F30912F0F2817390779F5F0932F0FB3
:1093D000E0932E0F71C0D80140E050E0AE17BF07F8
:1093E00050F412962D913C911397AD012115310542
:1093F00009F1D901F3CF9D01DA0133832283608122
:109400007181860F971F8217930769F4EC012881F9
:109410003981260F371F2E5F3F4F318320838A818A
:109420009B8193838283452B29F4F093310FE09342
:10943000300F42C01396FC93EE931297ED014991C1
:1094400059919E01240F351FE217F30771F48081B3
:109450009181840F951F029611969C938E93828121
:10946000938113969C938E931297E0E0F0E0D801DD
:1094700012968D919C911397009719F0F8018C0129
:10948000F6CF8D919C9198012E5F3F4F820F931FD5
:1094900020912E0F30912F0F2817390769F430973C
:1094A00029F41092310F1092300F02C013821282F1
:1094B00010932F0F00932E0FDF91CF911F910F91DB
:1094C00008956F927F928F929F92AF92BF92CF92A8
:1094D000DF92EF92FF920F931F93CF93DF93EC01F4
:1094E000009781F4CB01DF91CF911F910F91FF90F5
:1094F000EF90DF90CF90BF90AF909F908F907F9034
:109500006F90B2CEFC01E60FF71F9C01225031098B
:10951000E217F30708F4A8C0D9010D911C91119727
:1095200006171707A8F00530110508F49BC0C801FD
:1095300004978617970708F495C002501109061B77
:10954000170B019311936D937C93CF0122DF8AC097
:109550005B01A01AB10A4C01800E911EA091300F40
:10956000B091310F40E050E0E12CF12C109709F45C
:109570004AC0A815B905D1F56D907C90119763018B
:1095800082E0C80ED11CCA14DB0480F1A3014A1981
:109590005B096A0182E0C80ED11C1296BC9012973A
:1095A0001396AC91B5E0CB16D10440F0B282A38300
:1095B00051834083D9016D937C930AC00E5F1F4F86
:1095C000C301800F911FF90191838083EB2DFA2F46
:1095D000E114F10431F0D7011396FC93EE93129746
:1095E00041C0F093310FE093300F3CC08D919C91BE
:1095F00011974817590708F4AC017D0112960D9098
:10960000BC91A02DB3CF80912E0F90912F0F881574
:109610009905E1F446175707C8F480912C02909100
:109620002D02009741F48DB79EB7409130025091C2
:109630003102841B950BE817F907B0F4F0932F0F54
:10964000E0932E0FF901718360830CC0CB010CDE17
:109650007C01009749F0A801BE0128D0CE0199DE17
:10966000C70104C0CE0102C080E090E0DF91CF913D
:109670001F910F91FF90EF90DF90CF90BF90AF9030
:109680009F908F907F906F90089581E090E0F89484
:1096900014C5FB01DC0104C08D910190801921F4F7
:1096A00041505040C8F7881B990B0895FB01DC011D
:1096B00002C001900D9241505040D8F70895FC012E
:1096C0008191861721F08823D9F79927089531973A
:1096D000CF010895FB01DC0101900D920020E1F71C
:1096E0000895FB01DC014150504048F001900D927B
:1096F0000020C9F701C01D9241505040E0F7089585
:10970000FB0151915523A9F0BF01DC014D91451793
:109710004111E1F759F4CD010190002049F04D913C
:1097200040154111C9F3FB014111EFCF81E090E0F9
:1097300001970895EF920F931F93CF93DF93E80162
:1097400047FD02C034E001C034E1E42F440FFF0BB9
:10975000F7FF03C0F195E195F109E32E022F2E2FBB
:10976000AE01AAD0CE01DF91CF911F910F91EF9062
:1097700008958F929F92AF92BF92CF92DF92EF9215
:10978000FF92CF93DF93EC01688179818A819B817D
:10979000611571058105910521F464E279ED8BE590
:1097A00097E02DE133EF41E050E02AD449015A011E
:1097B0009B01AC01A7EAB1E43FD46B017C01ACEEA4
:1097C000B4EFA501940144D4DC01CB018C0D9D1DA7
:1097D000AE1DBF1DB7FF03C00197A109B048888324
:1097E0009983AA83BB83BC01CD019F77DF91CF9181
:1097F000FF90EF90DF90CF90BF90AF909F908F90B1
:109800000895B7CF82E392E0B4CF609332027093B1
:109810003302809334029093350208952532310546
:1098200018F4223008F004C0FA011082CA01089529
:10983000BB27FA01A62F6217710581059105330B2D
:1098400030FB66F0AA27660F771F881F991FAA1F93
:10985000A21710F0A21B63953850A9F7A05DAA3398
:1098600008F0A95DA19336F7B111B1931082CA0136
:1098700088C24532510518F4423008F004C0FB019B
:109880001082CB010895BB27FB015527AA27880F1B
:10989000991FAA1FA41710F0A41B83955051B9F764
:1098A000A05DAA3308F0A95DA193009779F7B111E3
:1098B000B1931192CB0165C24F925F926F927F92EA
:1098C0009F92AF92BF92CF92DF92EF92FF920F934F
:1098D0001F93CF93DF93CDB7DEB729970FB6F894D8
:1098E000DEBF0FBECDBF6A01122FB02E2BE32017B3
:1098F00020F0FF24F394F00E02C0BCE3FB2E0F2DEA
:1099000027E0AE014F5F5F4F64D1AC018981982F92
:109910009970913031F0E1FC06C0E0FE06C090E2A3
:1099200005C09DE203C09BE201C090E0EE2DE07116
:1099300083FF3CC0911102C083E001C084E0811725
:1099400018F4212F281B01C020E0E1110BC0F60103
:10995000822F30E2882319F031938150FBCFC20E61
:10996000D11C20E0992329F0D6019C93F601319671
:109970006F01C6010396E2FE0AC03EE4D6013C93A5
:1099800041E411964C93119712963C9306C03EE623
:10999000F601308341E641833283FC01322F40E2FD
:1099A000332309F442C041933150FACF82FF44C0BF
:1099B000911102C083E001C084E0811718F4212FC7
:1099C000281B01C020E0E1110BC0F601822F30E21C
:1099D000882319F031938150FBCFC20ED11C20E0B7
:1099E000992329F0D6019C93F60131966F01C601A7
:1099F0000396E2FE0BC039E4D6013C933EE4119697
:109A00003C93119736E412963C9307C039E6F60171
:109A100030833EE6318336E63283FC01322F40E26A
:109A2000332319F041933150FBCFFC01E20FF11DBC
:109A300010828EEF9FEFB7C0F1E0911101C0F0E00E
:109A40006F2F70E01416150624F49A012F5F3F4F14
:109A500002C021E030E0260F371FBB2029F06B2D1C
:109A600070E06F5F7F4F02C060E070E0260F371F2D
:109A7000612F70E0261737071CF4121B212F01C03D
:109A800020E03E2D387159F4D601322F60E23323A5
:109A900019F06D933150FBCFC20ED11C20E0FF2393
:109AA00031F0D6019C93B6016F5F7F4F6B01E111DE
:109AB0000BC0F601922F30E3992319F031939150A6
:109AC000FBCFC20ED11C20E09F2D940F3A81782F3E
:109AD0007071A72E84FF03C0313309F49150191619
:109AE00024F4993018F098E001C091E0E42F852F1C
:109AF00057FF02C0E0E080E06E2F782FE0E0F0E05A
:109B0000AEE29A2E3A01691A71082A01461A570ADA
:109B10000B2D10E01195019511096F3F8FEF78071C
:109B200029F4D6019C92C60101966C01461757078D
:109B300084F0661677066CF47F01E40CF51CA1E056
:109B4000B0E0AC0FBD1FEA0EFB1ED7011196BC9012
:109B500002C090E3B92E615071093196C601019699
:109B60007C016017710724F0D601BC926C01D5CF3F
:109B70006417750741F4363320F4353321F4A1100E
:109B800002C081E3B82EF601B082F701822F90E285
:109B9000882319F091938150FBCFF701E20FF11D5B
:109BA000108280E090E029960FB6F894DEBF0FBED9
:109BB000CDBFDF91CF911F910F91FF90EF90DF907C
:109BC000CF90BF90AF909F907F906F905F904F909D
:109BD0000895283008F027E03327DA01990F311D66
:109BE00087FD916000966105710539F432602E5F42
:109BF0003D9330E32A95E1F708959F3F30F0803898
:109C00007105610509F03C5F3C5F3D93913008F0C0
:109C10008068911DDF93CF931F930F93FF92EF9274
:109C2000192F987F9695E92F96959695E90FFF271E
:109C3000E858FD4F99273327EE24FF24A701E701B9
:109C400005900894079428F4360FE71EF81E491F64
:109C5000511D660F771F881F991F0694A1F7059065
:109C6000079428F4E70EF81E491F561FC11D770FF1
:109C7000881F991F661F0694A1F70590079428F482
:109C8000F80E491F561FC71FD11D880F991F661F49
:109C9000771F0694A1F70590079420F4490F561FEB
:109CA000C71FD81F990F661F771F881F0694A9F733
:109CB00084911095177041F0D695C79557954795A3
:109CC000F794E7941A95C1F7EEE1F2E068941590E5
:109CD000159135916591959105907FE27395E11805
:109CE000F10A430B560BC90BD009C0F7E10CF11E6A
:109CF000431F561FC91FD01D7EF4703311F48A957F
:109D0000E6CFE894015030F0080F0AF4002702175C
:109D100008F4202F2395022F7A3328F079E37D93DE
:109D20002A95E9F710C07D932A9589F606949795B0
:109D30006795379517951794E118F10A430B560B61
:109D4000C90BD00998F023957E9173957A3308F06A
:109D500070E37C932013B8F77E9170617D9330F0AF
:109D6000839571E37D9370E32A95E1F71124EF90D9
:109D7000FF900F911F91CF91DF91992787FD9095CB
:109D80000895DC01FC01672F71917723E1F7329789
:109D900004C07C916D9370836291AE17BF07C8F3C6
:109DA000089540D008F481E00895E89409C097FB35
:109DB0003EF490958095709561957F4F8F4F9F4FA2
:109DC0009923A9F0F92F96E9BB279395F6958795E6
:109DD00077956795B795F111F8CFFAF4BB0F11F4A9
:109DE00060FF1BC06F5F7F4F8F4F9F4F16C0882350
:109DF00011F096E911C0772321F09EE8872F762F86
:109E000005C0662371F096E8862F70E060E02AF0C6
:109E10009A95660F771F881FDAF7880F96958795B2
:109E200097F90895990F0008550FAA0BE0E8FEEF87
:109E300016161706E807F907C0F012161306E4070E
:109E4000F50798F0621B730B840B950B39F40A2607
:109E500061F0232B242B252B21F408950A2609F4E5
:109E6000A140A6958FEF811D811D08950BD078C06C
:109E700069D028F06ED018F0952309F05AC05FC061
:109E80001124A2C07ED0A0F3959FD1F3950F50E08E
:109E9000551F629FF001729FBB27F00DB11D639F9C
:109EA000AA27F00DB11DAA1F649F6627B00DA11D42
:109EB000661F829F2227B00DA11D621F739FB00DE8
:109EC000A11D621F839FA00D611D221F749F332758
:109ED000A00D611D231F849F600D211D822F762FF1
:109EE0006A2F11249F5750408AF0E1F088234AF0EE
:109EF000EE0FFF1FBB1F661F771F881F915050403A
:109F0000A9F79E3F510570F014C05EC05F3FECF3AF
:109F1000983EDCF3869577956795B795F795E79525
:109F20009F5FC1F7FE2B880F911D9695879597F936
:109F3000089597F99F6780E870E060E008959FEFCB
:109F400080EC089500240A941616170618060906D0
:109F5000089500240A94121613061406050608959F
:109F6000092E0394000C11F4882352F0BB0F40F427
:109F7000BF2B11F460FF04C06F5F7F4F8F4F9F4F67
:109F8000089557FD9058440F551F59F05F3F71F0E9
:109F90004795880F97FB991F61F09F3F79F0879550
:109FA0000895121613061406551FF2CF4695F1DFD9
:109FB00008C0161617061806991FF1CF8695710569
:109FC000610508940895E894BB2766277727CB019D
:109FD00097F90895F999FECF92BD81BDF89A992716
:109FE00080B50895262FF999FECF1FBA92BD81BD85
:109FF00020BD0FB6F894FA9AF99A0FBE019608950B
:10A00000052E97FB16F400940FD057FD05D024D0F1
:10A0100007FC02D046F408C0509540953095219534
:10A020003F4F4F4F5F4F0895909580957095619584
:10A030007F4F8F4F9F4F089531D0A59F900DB49FB4
:10A04000900DA49F800D911D11240895B7FFF4CFAA
:10A05000F3DF821B930B0895A1E21A2EAA1BBB1BF0
:10A06000FD010DC0AA1FBB1FEE1FFF1FA217B307E4
:10A07000E407F50720F0A21BB30BE40BF50B661FFA
:10A08000771F881F991F1A9469F7609570958095BE
:10A0900090959B01AC01BD01CF010895A29FB00135
:10A0A000B39FC001A39F700D811D1124911DB29F0C
:10A0B000700D811D1124911D089511E0CDE8D1E0AE
:10A0C00000E006C0802FFE010E9424482196011D59
:0EA0D000CE38D10780E00807A9F7F894FFCF3B
:10A0DE00D816D816D816D816D816D816D816D81602
:10A0EE00DEADBE44444470746274696D65312E7089
:10A0FE0074622E646500FFFFFFFF00C00000320F88
:10A10E0080000100000000044D515454040A000068
:10A11E000058020000100E000080510100803A0924
:10A12E0000008D27001E00000000000000E1010469
:10A13E0003C001B006B906FC0201005E000000007B
:10A14E0000000014163A32DE15BC15D0155A160052
:10A15E00000000A3213A3200000000322ECB31590C
:10A16E00300000000036173A323617000000003675
:10A17E001736173617361736173617361736173669
:10A18E00173617361736170000000036173A3236D4
:10A19E00173617361736170000000036173A3200FA
:10A1AE00000000F20D2C0EDF2EC52E9E2E5B2ED43F
:10A1BE000EED11C12EF130CE30532E140E120E486C
:10A1CE002E080E00000000F01600000000361700EA
:10A1DE00000000DA165017132E421C721BD916718E
:10A1EE002E5C2EFC2F022F9A2F6A1C241C2B2E1B4A
:10A1FE002E172E3F1D696E697469616C697A6174E0
:10A20E00696F6E20646F6E652E0053746172747385
:10A21E002E63737600696E697469616C697A617414
:10A22E00696F6E206661696C656421004C617374A0
:10A23E005F537461727474696D65004C65697374F3
:10A24E00756E672E6373760054696D7374616D70ED
:10A25E003B50756C73655F476573616D743B505F02
:10A26E00476573616D743B50756C73655F4B7565B7
:10A27E006368653B505F4B75656368653B50756CF5
:10A28E0073655F4544563B505F4544563B44696693
:10A29E00665F50756C73653B446966665F5000542B
:10A2AE00696D653B50756C73655F476573616D7461
:10A2BE003B455F48563B50756C73655F4B756563E8
:10A2CE0068653B455F4B75656368653B50756C73A0
:10A2DE00655F4544563B455F4544563B446966665B
:10A2EE005F50756C73653B446966665F456E65725B
:10A2FE006769650073657276657220697320617493
:10A30E002000686175746F6D6174696F6E30312EE7
:10A31E006861636B6C61626F722E646500454550B7
:10A32E00524F4D5F575249544500547269676765E5
:10A33E0072003B00417474656D7074696E67204DD8
:10A34E0051545420636F6E6E656374696F6E2E2E5A
:10A35E002E00636F6E6E6563746564006661696C72
:10A36E0065642C2072633D0061726475696E6F3096
:10A37E00312F6D61696E706F7765722F636F756EB9
:10A38E007465720061726475696E6F30312F6B691E
:10A39E00746368656E706F7765722F636F756E7418
:10A3AE0065720061726475696E6F30312F697470F9
:10A3BE006F7765722F636F756E746572006172646C
:10A3CE0075696E6F30312F6D61696E706F77657262
:10A3DE002F63757272656E740061726475696E6F4B
:10A3EE0030312F6B69746368656E706F7765722F8D
:10A3FE0063757272656E740061726475696E6F302A
:10A40E00312F6974706F7765722F63757272656E16
:10A41E00740061726475696E6F30312F526573749A
:10A42E00506F7765722F63757272656E7400474553
:10A43E0054202F2000485454502F312E31203230CA
:10A44E0030204F4B00436F6E74656E742D547970CF
:10A45E00653A20746578742F68746D6C00436F6E66
:10A46E006E656374696F6E3A20636C6F736500522C
:10A47E006566726573683A203330003C21444F4361
:10A48E00545950452048544D4C3E003C68746D6CF8
:10A49E003E003C68313E48414C2057656273657200
:10A4AE0076657220456E65726769656D6573737545
:10A4BE006E673C2F68313E00554E49582054494D29
:10A4CE0045203D2000207C2020616B7475656C6CEE
:10A4DE0065205A656974203D2000207C20205A6535
:10A4EE00697420536569742053746172743A200044
:10A4FE003C42523E00416C6C6573004B756563685F
:10A50E006500454456003C68323E46696C65733AB8
:10A51E003C2F68323E004C6973742046696C65733B
:10A52E00003C756C3E0046696C654F4B0046696C8D
:10A53E0065427265616B003C2F756C3E0046696C1E
:10A54E00654F4B3100474554202F0020485454503E
:10A55E0000485454502F312E3120343034204E6F59
:10A56E007420466F756E64003C68323E46696C65B9
:10A57E00204E6F7420466F756E64213C2F68323EFC
:10A58E00004F70656E65642100436F6E74656E7466
:10A59E002D547970653A20746578742F706C6169EA
:10A5AE006E003C6C693E3C6120687265663D22001F
:10A5BE003C2F613E003C2F6C693E006572726F72DB
:10A5CE00206F70656E696E6720646174616C6F6771
:10A5DE002E747874003C68323E00203A2000206BC6
:10A5EE00576820002057202876616C69642000206F
:10A5FE0057290050756C73653A2000207C205A65EF
:10A60E0069742073656974206C65747A74656E2044
:10A61E0050756C733A200073207C2056616C69640F
:10A62E002050756C735A6569743A20006C65747AA3
:10A63E0074652031306D696E3A2000206B576820AA
:10A64E007C206C65747A74652031683A2000206B2A
:10A65E005768207C206C65747A7465203234683AB1
:10A66E002000206B5768207C206C65747A74656EB0
:10A67E002037643A2000206B5768207C206C65746C
:10A68E007A74656E203330643A2000206B57680070
:10A69E003A005365636F6E64732073696E63652051
:10A6AE004A616E20312031393030203D2000556E08
:10A6BE0069782074696D65203D20005468652055C9
:10A6CE0054432074696D65206973200057495A6E92
:10A6DE0065740050756C73653130732E637376003C
:10A6EE0031306D696E2E6373760031682E6373762A
:10A6FE00003234682E6373760037642E63737600EF
:10A70E003330642E6373760050756C736500456E3E
:10A71E00657267696531306D696E00456E65726789
:10A72E006965316800456E65726769653234680027
:10A73E00456E6572676965376400456E6572676957
:10A74E0065333064006E616E00696E66006F76660A
:04A75E00000D0A00E0
:020000023000CC
:10E000000D9489F10D94B2F10D94B2F10D94B2F129
:10E010000D94B2F10D94B2F10D94B2F10D94B2F1F0
:10E020000D94B2F10D94B2F10D94B2F10D94B2F1E0
:10E030000D94B2F10D94B2F10D94B2F10D94B2F1D0
:10E040000D94B2F10D94B2F10D94B2F10D94B2F1C0
:10E050000D94B2F10D94B2F10D94B2F10D94B2F1B0
:10E060000D94B2F10D94B2F10D94B2F10D94B2F1A0
:10E070000D94B2F10D94B2F10D94B2F10D94B2F190
:10E080000D94B2F10D94B2F10D94B2F10D94B2F180
:10E090000D94B2F10D94B2F10D94B2F10D94B2F170
:10E0A0000D94B2F10D94B2F10D94B2F10D94B2F160
:10E0B0000D94B2F10D94B2F10D94B2F10D94B2F150
:10E0C0000D94B2F10D94B2F10D94B2F10D94B2F140
:10E0D0000D94B2F10D94B2F10D94B2F10D94B2F130
:10E0E0000D94B2F141546D656761323536300041AF
:10E0F000726475696E6F206578706C6F72657220DE
:10E1000073746B3530305632206279204D4C530099
:10E11000426F6F746C6F616465723E004875683F52
:10E1200000436F6D70696C6564206F6E203D200048
:10E130004350552054797065202020203D20005FF9
:10E140005F4156525F415243485F5F3D2000415658
:10E1500052204C696243205665723D20004743437C
:10E160002056657273696F6E203D20004350552024
:10E1700049442020202020203D20004C6F7720663D
:10E18000757365202020203D20004869676820665F
:10E190007573652020203D200045787420667573D6
:10E1A00065202020203D20004C6F636B2066757336
:10E1B000652020203D20004D617220203720323024
:10E1C000313300312E362E3800342E332E350056A2
:10E1D00023202020414444522020206F7020636F70
:10E1E00064652020202020696E73747275637469E1
:10E1F0006F6E2061646472202020496E74657272B3
:10E20000757074006E6F20766563746F7200726A49
:10E210006D702020006A6D70200057686174207056
:10E220006F72743A00506F7274206E6F7420737541
:10E2300070706F72746564004D7573742062652030
:10E2400061206C6574746572002000577269747483
:10E25000696E672045450052656164696E672045B7
:10E26000450045452065727220636E743D00504F35
:10E27000525400303D5A65726F2061646472003FF1
:10E280003D43505520737461747300403D454550C3
:10E29000524F4D207465737400423D426C696E6B41
:10E2A000204C454400453D44756D70204545505215
:10E2B0004F4D00463D44756D7020464C415348001B
:10E2C000483D48656C70004C3D4C69737420492F83
:10E2D0004F20506F72747300513D51756974005234
:10E2E0003D44756D702052414D00563D73686F7707
:10E2F00020696E7465727275707420566563746FF0
:10E30000727300593D506F727420626C696E6B00BD
:10E310002A0011241FBECFEFD1E2DEBFCDBF01E046
:10E320000CBF12E0A0E0B2E0EEE1FDEF03E00BBFB6
:10E3300002C007900D92A030B107D9F712E0A0E01B
:10E34000B2E001C01D92AE30B107E1F70F9460F367
:10E350000D948DFE01E20EBF0FEF0DBF11241FBE05
:10E360000D9460F30D9400F020E030E040ED57E0B4
:10E3700005C0FA013197F1F72F5F3F4F2817390792
:10E38000C0F308959C01260F311DC901A0E0B0E043
:10E390002F5F3F4FABBFFC018791882361F08093D3
:10E3A000C6008091C00086FFFCCF8091C0008064D1
:10E3B0008093C000EACF08958DE08093C6008091DD
:10E3C000C00086FFFCCF8091C00080648093C000B5
:10E3D0008AE08093C6008091C00086FFFCCF8091C8
:10E3E000C00080648093C00008950F94C2F10F9420
:10E3F000DCF10895FC019081992359F09093C600B7
:10E400008091C00086FFFCCF8091C0008064809323
:10E41000C0003196992379F70895282F982F929567
:10E420009F70892F805D8A3308F0895F8093C600D2
:10E430008091C00086FFFCCF8091C00080648093F3
:10E44000C000822F8F70982F905D9A3308F0995FEB
:10E450009093C6008091C00086FFFCCF8091C000E1
:10E4600080648093C00008959C01FB01853691056E
:10E470001CF46330710594F0C90164E670E00F94F8
:10E480002EFE605D7F4F6093C6008091C00086FFC6
:10E49000FCCF8091C00080648093C0002B30310598
:10E4A00014F43297B4F0C90164E670E00F942EFEC4
:10E4B0006AE070E00F942EFE605D7F4F6093C600AF
:10E4C0008091C00086FFFCCF8091C0008064809363
:10E4D000C000C9016AE070E00F942EFEC0968093E0
:10E4E000C6008091C00086FFFCCF8091C000806490
:10E4F0008093C00008951F93182F8EE692EE60E07F
:10E500000F94C2F11093C6008091C00086FFFCCF2B
:10E510008091C00080648093C0000F94DCF11F9153
:10E5200008952F923F924F925F926F927F928F92B7
:10E530009F92AF92BF92CF92DF92EF92FF920F9392
:10E540001F93DF93CF93CDB7DEB762970FB6F894E2
:10E55000DEBF0FBECDBF382E622ECA01DB015C01CB
:10E560006D01772420E2222E2E010894411C511CBB
:10E570008BC081E0A81680E0B80681E0C80680E084
:10E58000D80628F0C601AA27BB270F940DF2BB2797
:10E59000AD2D9C2D8B2D0F940DF28A2D0F940DF225
:10E5A0002092C6008091C00086FFFCCF8091C00001
:10E5B00080648093C0009DE29093C6008091C0006B
:10E5C00086FFFCCF8091C00080648093C0002092C1
:10E5D000C6008091C00086FFFCCF8091C00080649F
:10E5E0008093C00019828601750188249924A1E0D6
:10E5F0003A1651F03A1620F0B2E03B1661F409C029
:10E600000BBFF701779007C0C7010F9477FE782EF4
:10E6100002C0F7017080872D0F940DF22092C60082
:10E620008091C00086FFFCCF8091C0008064809301
:10E63000C000872D8052F401EF70F0708F3520F408
:10E64000E40DF51D708204C0E40DF51D8EE280839B
:10E650000894E11CF11C011D111D0894811C911CE2
:10E6600090E18916910409F0C2CF80E190E0A0E02A
:10E67000B0E0A80EB91ECA1EDB1E198AC2010F9493
:10E68000FAF10F94DCF16A94662009F072CF629679
:10E690000FB6F894DEBF0FBECDBFCF91DF911F91B3
:10E6A0000F91FF90EF90DF90CF90BF90AF909F9031
:10E6B0008F907F906F905F904F903F902F90089534
:10E6C0002F923F924F925F926F927F928F929F9282
:10E6D000AF92BF92CF92DF92EF92FF920F931F9370
:10E6E000DF93CF93CDB7DEB7CD53D1400FB6F894BB
:10E6F000DEBF0FBECDBF01E20EBF0FEF0DBF94B75F
:10E70000F894A89514BE80916000886180936000A1
:10E7100010926000789493FF05C0E0910002F091A0
:10E7200001021995279A2F9A8091C00082608093E8
:10E73000C00080E18093C40088E18093C1000000A4
:10E74000EE24FF24870144E0A42EB12CCC24DD2448
:10E7500024C0C5010197F1F70894E11CF11C011DCB
:10E76000111D21E2E2162EE4F20620E0020720E06D
:10E77000120718F031E0C32ED12CC801B70127ECE5
:10E780003BE140E050E00F9441FE611571058105C9
:10E79000910519F485B1805885B98091C00087FD35
:10E7A00003C0C114D104A9F2A6014F5F5F4FC25E3E
:10E7B000DE4F59834883CE51D140C25EDE4F8881FF
:10E7C0009981CE51D140019711F00D9410FEC05D9A
:10E7D000DE4F19821882C053D14060E0C15DDE4F28
:10E7E0001882CF52D14088249924C35DDE4F19820C
:10E7F0001882CD52D140C05EDE4F188219821A8233
:10E800001B82C052D140CE5CDE4F188219821A8220
:10E810001B82C253D140EE24FF2487010BBFF701B6
:10E8200007911691C45CDE4F19830883CC53D14005
:10E830000D940BFEC25EDE4F28813981CE51D1404E
:10E840002130310509F52091C600C25EDE4F1982E4
:10E850001882CE51D14022C02F5F3F4F4F4F5F4FA4
:10E86000213082E138078AE7480780E0580780F0C6
:10E87000C45CDE4FE881F981CC53D140EF5FFF4F9C
:10E8800019F0EE27FF27099420E030E040E050E047
:10E890008091C00087FFE0CF2091C600C35DDE4FAE
:10E8A00048815981CD52D1404F5F5F4FC35DDE4FEC
:10E8B00059834883CD52D140213209F063C64A3092
:10E8C000510508F05FC60894811C911C53E0851621
:10E8D000910409F059C600E010E018C081E280936D
:10E8E000C6008091C00086FFFCCF8091C00080648C
:10E8F0008093C0002F5F3F4F2931310579F70F9486
:10E90000DCF10F5F1F4F0530110519F020E030E0FA
:10E91000E5CF10920A0210920B0210920C02109294
:10E920000D02109206021092070210920802109235
:10E930000902109202021092030210920402109235
:10E9400005028FEE90EE60E00F94F5F180E191EE1C
:10E9500060E00F94C2F18091C00087FFFCCF9091DE
:10E96000C600903608F09F759032B8F09093C600BC
:10E970008091C00086FFFCCF8091C00080648093AE
:10E98000C000A0E2A093C6008091C00086FFFCCF2B
:10E990008091C00080648093C000983409F4D7C18E
:10E9A0009934B8F4923409F459C1933458F490333B
:10E9B00019F1903308F4E3C59F33A1F1903409F0C5
:10E9C000DEC5BDC0953409F470C1963409F0D7C5D1
:10E9D00098C1923509F42BC2933538F49C3409F46C
:10E9E000F5C1913509F0CBC518C2963509F445C279
:10E9F000993509F0C4C567C483E792EE62E00F94CD
:10EA0000F5F110920602109207021092080210927D
:10EA1000090210920A0210920B0210920C0210923C
:10EA20000D0213C18FE792EE62E00F94F5F18FEEC5
:10EA300090EE60E00F94F5F181E291EE60E00F94CA
:10EA4000C2F187EB91EE60E00F94F5F180E391EE77
:10EA500060E00F94C2F184EE90EE60E00F94F5F167
:10EA60008FE391EE60E00F94C2F186E090E061E008
:10EA700070E00F9434F20F94DCF18DE591EE60E0DC
:10EA80000F94C2F189EC91EE60E00F94F5F18EE401
:10EA900091EE60E00F94C2F183EC91EE60E00F9490
:10EAA000F5F18CE691EE60E00F94C2F18EE10F94E7
:10EAB0000DF288E90F940DF281E00F940DF20F949E
:10EAC000DCF18BE791EE60E00F94C2F119E0E0E039
:10EAD000F0E010935700E4918E2F0F940DF20F94F5
:10EAE000DCF18AE891EE60E00F94C2F1E3E0F0E03F
:10EAF00010935700E4918E2F0F940DF20F94DCF1D8
:10EB000089E991EE60E00F94C2F1E2E0F0E0109349
:10EB10005700E4918E2F0F940DF20F94DCF188EAE8
:10EB200091EE60E00F94C2F1E1E0F0E01093570045
:10EB30001491812F0F940DF20F94DCF107CF8BE825
:10EB400092EE62E00F94F5F18BE492EE60E00F94A8
:10EB5000F5F10F94DCF100E010E019C0C8016F2D51
:10EB60000F947FFEFF2031F489E492EE60E00F9471
:10EB7000C2F10BC0F092C6008091C00086FFFCCFAE
:10EB80008091C00080648093C0000F5F1F4FC80158
:10EB900081519F41A0E0B0E0ABBFFC01F790BAE229
:10EBA000FB1621F0E2E000301E07C1F60F94DCF105
:10EBB0000F94DCF187E592EE60E00F94F5F10F948D
:10EBC000DCF1CC24DD2400E010E01EC0C8010F946D
:10EBD00077FEF82E882331F489E492EE60E00F94FA
:10EBE000C2F10BC08093C6008091C00086FFFCCFAD
:10EBF0008091C00080648093C000FE1419F00894D6
:10EC0000C11CD11C0F5F1F4FC80181519F41A0E063
:10EC1000B0E0ABBFFC01E790FAE2EF1621F022E092
:10EC20000030120799F60F94DCF10F94DCF182E6C4
:10EC300092EE60E00F94C2F1C60161E070E00F94C3
:10EC400034F20F94DCF10F94DCF110920202109276
:10EC50000302109204021092050278CE89E992EE26
:10EC600062E00F94F5F1279A2F9A16C02F9880E052
:10EC700090E0E0EDF7E03197F1F7019684369105E9
:10EC8000C1F72F9A80E090E0E0EDF7E03197F1F7DF
:10EC9000019684369105C1F78091C00087FFE6CFC9
:10ECA0008091C00087FFFCCF64C485EA92EE62E0E9
:10ECB0000F94F5F140910202509103026091040219
:10ECC0007091050281E020E10F9491F2809102029F
:10ECD00090910302A0910402B091050280509F4FD1
:10ECE000AF4FBF4F8093020290930302A0930402A0
:10ECF000B093050280509041A040B04008F426CE69
:10ED0000A4CF83EB92EE62E00F94F5F140910602FE
:10ED100050910702609108027091090280E020E1A1
:10ED20000F9491F28091060290910702A09108023F
:10ED3000B091090280509F4FAF4FBF4F80930602A2
:10ED400090930702A0930802B0930902FFCD80ECD4
:10ED500092EE62E00F94F5F183E792EE60E00F949B
:10ED6000F5F18FE792EE60E00F94F5F18BE892EE0B
:10ED700060E00F94F5F189E992EE60E00F94F5F10F
:10ED800085EA92EE60E00F94F5F183EB92EE60E09D
:10ED90000F94F5F180EC92EE60E00F94F5F187ECC2
:10EDA00092EE60E00F94F5F188ED92EE60E00F9442
:10EDB000F5F18FED92EE60E00F94F5F18AEE92EEB0
:10EDC00060E00F94F5F183E093EEBDCD87EC92EE19
:10EDD00062E00F94F5F181E40F947BF282E40F94EA
:10EDE0007BF283E40F947BF284E40F947BF285E45E
:10EDF0000F947BF286E40F947BF287E40F947BF20E
:10EE000088E40F947BF28AE40F947BF28BE40F94F6
:10EE10007BF28CE40F947BF299CD88ED92EE62E068
:10EE20000F94F5F1772473948824992409C48FED05
:10EE300092EE62E00F94F5F140910A0250910B02BC
:10EE400060910C0270910D0282E020E10F9491F22A
:10EE500080910A0290910B02A0910C02B0910D02D8
:10EE600080509F4FAF4FBF4F80930A0290930B0289
:10EE7000A0930C02B0930D0269CD8AEE92EE62E08F
:10EE80000F94F5F184EE90EE60E00F94F5F18FECC5
:10EE900091EE60E00F94F5F1662477244301CC5D98
:10EEA000DE4F19821882C452D140D401C301B695F5
:10EEB000A79597958795CA5DDE4F88839983AA8326
:10EEC000BB83C652D140CC5DDE4FA881B981C4520C
:10EED000D1401196CC5DDE4FB983A883C452D14096
:10EEE000CD0162E070E00F9434F2B0E2B093C6005E
:10EEF0008091C00086FFFCCF8091C0008064809329
:10EF0000C000EDE2E093C6008091C00086FFFCCF18
:10EF10008091C00080648093C000F0E2F093C6004E
:10EF20008091C00086FFFCCF8091C00080648093F8
:10EF3000C000CA5DDE4FE880F9800A811B81C6529D
:10EF4000D140BB27A12F902F8F2D0F940DF2CA5DBA
:10EF5000DE4F8881C652D1400F940DF2B0E2FB2EF5
:10EF6000F092C6008091C00086FFFCCF8091C00067
:10EF700080648093C0000DE30093C6008091C000C0
:10EF800086FFFCCF8091C00080648093C00010E2B7
:10EF90001093C6008091C00086FFFCCF8091C00016
:10EFA00080648093C0008BBEF3012791C65DDE4F65
:10EFB0002883CA52D140A22EBB24CC24DD2408943D
:10EFC000611C711C811C911C8BBEF3018791282E42
:10EFD0003324442455240894611C711C811C911C09
:10EFE0008BBEF3013791C55DDE4F3883CB52D140E4
:10EFF0000894611C711C811C911C8BBEF30147910C
:10F00000C45DDE4F4883CC52D140ADEFEA2EAFEF66
:10F01000FA2EAFEF0A2FAFEF1A2F6E0C7F1C801E57
:10F02000911E142D032DF22CEE24EA0CFB1C0C1D5A
:10F030001D1D0F940DF220E22093C6008091C000A8
:10F0400086FFFCCF8091C00080648093C000C65DC5
:10F05000DE4F8881CA52D1400F940DF230E23093D6
:10F06000C6008091C00086FFFCCF8091C000806404
:10F070008093C000C45DDE4F8881CC52D1400F9494
:10F080000DF240E24093C6008091C00086FFFCCFA5
:10F090008091C00080648093C000C55DDE4F888190
:10F0A000CB52D1400F940DF250E25093C6008091A4
:10F0B000C00086FFFCCF8091C00080648093C000B8
:10F0C0008FEFE8168FEFF80680E0080780E018075A
:10F0D00031F484E092EE60E00F94C2F1DFC0D80119
:10F0E000C7018070907CA070B0708050904CA040A0
:10F0F000B040D1F52FEF3FE340E050E0E222F322B1
:10F1000004231523CA5DDE4FA880B980CA80DB8046
:10F11000C652D140AE0CBF1CC01ED11EAA0CBB1CD7
:10F12000CC1CDD1C8EE092EE60E00F94C2F1BB2798
:10F13000A12F902F8F2D0F940DF28E2D0F940DF285
:10F1400030E23093C6008091C00086FFFCCF8091F2
:10F15000C00080648093C0004EE34093C60080915D
:10F16000C00086FFFCCF87C08EE09EEFA0E0B0E03D
:10F17000E822F9220A231B239CE0E91694E9F90608
:10F1800090E0090790E0190709F088C0C45DDE4FE0
:10F19000A881CC52D140EA2EFF2400E010E0102FCD
:10F1A0000F2DFE2CEE24C55DDE4FB881CB52D14031
:10F1B000EB0EF11C011D111DD601C501817090706F
:10F1C000A070B070DC0199278827E80EF91E0A1F8D
:10F1D0001B1F20EF30E040E050E0A222B322C42207
:10F1E000D52241E1AA0CBB1CCC1CDD1C4A95D1F7F1
:10F1F000EA0CFB1C0C1D1D1D81E090E0A0E0B0E0BE
:10F20000282239224A225B2235E1220C331C441C7D
:10F21000551C3A95D1F7E20CF31C041D151D57013E
:10F220006801AA0CBB1CCC1CDD1C85E192EE60E0E1
:10F230000F94C2F1C801AA27BB270F940DF2BB2778
:10F24000A12F902F8F2D0F940DF28E2D0F940DF274
:10F2500090E29093C6008091C00086FFFCCF809121
:10F26000C00080648093C000AEE3A093C60080918C
:10F27000C00086FFFCCF8091C00080648093C000F6
:10F28000C601AA27BB270F940DF2BB27AD2D9C2DDD
:10F290008B2D0F940DF28A2D0F940DF20F94DCF14B
:10F2A000CC5DDE4FE881F981C452D140F99709F471
:10F2B0004DCBF4E0EF2EF12C012D112D6E0C7F1CA7
:10F2C000801E911EF2CD83E093EE62E00F94F5F183
:10F2D0008AE192EE60E00F94C2F18091C00087FF56
:10F2E000FCCF1091C6001F751093C6008091C0001E
:10F2F00086FFFCCF8091C00080648093C0000F9493
:10F30000DCF1812F81548A3108F036C1163409F4BA
:10F3100095C0173490F4133409F44EC0143430F40B
:10F320001134F1F0123409F01DC130C0143409F465
:10F3300059C0153409F016C16BC01A3409F4C4C0A1
:10F340001B3438F4173409F48FC0183409F00AC19B
:10F35000A1C01B3409F4D2C01C3409F003C1E8C0B9
:10F360008FEF81B90DC082B1809582B980E090E0C5
:10F37000E0EDF7E03197F1F70196883C9105C1F790
:10F380008091C00087FFEFCF12B8EFC08FEF84B934
:10F390000DC085B1809585B980E090E0E0EDF7E0A3
:10F3A0003197F1F70196883C9105C1F78091C00033
:10F3B00087FFEFCF15B8D9C08FEF87B90DC088B1DF
:10F3C000809588B980E090E0E0EDF7E03197F1F7C3
:10F3D0000196883C9105C1F78091C00087FFEFCF6F
:10F3E00018B8C3C08FEF8AB90DC08BB180958BB9A7
:10F3F00080E090E0E0EDF7E03197F1F70196883C8E
:10F400009105C1F78091C00087FFEFCF1BB8ADC059
:10F410008FEF8DB90DC08EB180958EB980E090E0F0
:10F42000E0EDF7E03197F1F70196883C9105C1F7DF
:10F430008091C00087FFEFCF1EB897C08FEF80BBD1
:10F440000DC081B3809581BB80E090E0E0EDF7E0F6
:10F450003197F1F70196883C9105C1F78091C00082
:10F4600087FFEFCF11BA81C08FEF83BB0DC084B38C
:10F47000809584BB80E090E0E0EDF7E03197F1F714
:10F480000196883C9105C1F78091C00087FFEFCFBE
:10F4900014BA6BC08FEF809301010FC080910201FD
:10F4A00080958093020180E090E0E0EDF7E03197F5
:10F4B000F1F70196883C9105C1F78091C00087FF64
:10F4C000EDCF1092020151C08FEF809304010FC065
:10F4D0008091050180958093050180E090E0E0ED4A
:10F4E000F7E03197F1F70196883C9105C1F78091DB
:10F4F000C00087FFEDCF1092050137C08FEF8093DA
:10F5000007010FC08091080180958093080180E079
:10F5100090E0E0EDF7E03197F1F70196883C910536
:10F52000C1F78091C00087FFEDCF109208011DC088
:10F530008FEF80930A010FC080910B01809580931B
:10F540000B0180E090E0E0EDF7E03197F1F70196F4
:10F55000883C9105C1F78091C00087FFEDCF1092E4
:10F560000B0103C085E292EEEEC98091C00087FFD7
:10F57000FCCF8091C600EAC988E392EEE4C98CE131
:10F5800091EEE1C988249924933011F1943028F444
:10F59000913089F09230B8F408C0953061F195301F
:10F5A000F0F0963009F048C043C02B3109F042C951
:10F5B00091E06BE13FC96227C15DDE4F2883CF52E6
:10F5C000D14092E037C9B22FA0E0622793E032C960
:10F5D000822F90E0A82BB92B622794E02BC92E3004
:10F5E00009F039C3622795E0C05DDE4F19821882A9
:10F5F000C053D1401FC9E1E0F0E0EC0FFD1FC05D3A
:10F60000DE4F08811981C053D140E00FF11F2083E4
:10F610000F5F1F4FC05DDE4F19830883C053D14079
:10F6200062270A171B0709F005C9D80196E002C92D
:10F63000261709F010C303C0973009F0FBC87724E0
:10F640009981933109F412C19431C8F4963009F4C8
:10F65000D8C0973050F4923009F406C1933009F4C1
:10F660006DC0913009F059C253C0913109F477C08F
:10F67000923108F0BBC0903109F04FC2F5C098310B
:10F6800009F487C0993150F4953109F4EFC09531F0
:10F6900008F4C6C1963109F040C2C2C19A3109F4DA
:10F6A0006CC09A3108F491C09B3109F45BC09D3164
:10F6B00009F033C29D81903359F48F81882311F46E
:10F6C0009EE11CC0813011F091E018C098E916C08D
:10F6D000892F807591F0903539F4E0E0F0E089E011
:10F6E0008093570094910AC0983539F4E3E0F0E034
:10F6F00089E080935700949101C090E01A821B82A8
:10F700008D818C831D829E831F8227E030E009C299
:10F710001A8288E08B8381E48C8386E58D8382E581
:10F720008E8389E48F8383E5888780E589878FE5E9
:10F730008A8782E38B872BE030E0F3C18A818139AD
:10F7400041F0823941F0803911F48FE005C080E04A
:10F7500003C082E001C08AE01A828B8344C0772410
:10F76000739482C08D81882311F48EE12CC0813086
:10F7700011F081E028C088E926C01A82E1E0F0E0BB
:10F7800089E08093570084918B831C8224E030E0D1
:10F79000C8C18B81803589F48C81883039F4E2E0EE
:10F7A000F0E089E08093570084910DC0E0E0F0E044
:10F7B00089E080935700849106C0E3E0F0E089E09F
:10F7C0008093570084911A82DFCF8D81836C99E0FA
:10F7D000E1E0F0E0082E90935700E89507B600FCB2
:10F7E000FDCF1A821B8223E030E09BC180EC8A832C
:10F7F000CE5CDE4F188219821A821B82C253D1401E
:10F800008EC18A8190E0A0E0B0E0582F44273327D2
:10F8100022278B8190E0A0E0B0E0DC0199278827C7
:10F82000282B392B4A2B5B2B8D8190E0A0E0B0E098
:10F83000282B392B4A2B5B2B8C8190E0A0E0B0E089
:10F84000BA2FA92F982F8827282B392B4A2B5B2BCF
:10F85000220F331F441F551FC05EDE4F288339839C
:10F860004A835B83C052D1401A8259C13A81C95C34
:10F87000DE4F3883C753D140CA5CDE4F1882C6536F
:10F88000D1408B81C82EDD24CA5CDE4F488159816E
:10F89000C653D140C42AD52A933109F082C0CE5C28
:10F8A000DE4F88819981AA81BB81C253D1408050AB
:10F8B000904CA340B04030F583E0CE5CDE4FE88052
:10F8C000F9800A811B81C253D140F70100935B008C
:10F8D00080935700E89507B600FCFDCFCE5CDE4F65
:10F8E000088119812A813B81C253D14000501F4FAA
:10F8F0002F4F3F4FCE5CDE4F088319832A833B8313
:10F90000C253D140C05EDE4F488159816A817B81FC
:10F91000C052D140DE011B9631E08C9111962C91A2
:10F9200011971296C75CDE4F2883C953D140C85C3B
:10F93000DE4F1882C853D14090E0C85CDE4FE881AA
:10F94000F981C853D1408E2B9F2B0C01FA01609393
:10F950005B0030935700E89511244E5F5F4F6F4F67
:10F960007F4F0EEFE02E0FEFF02ECE0CDF1CC114F8
:10F97000D10499F685E0C05EDE4F088119812A81A5
:10F980003B81C052D140F80120935B008093570027
:10F99000E89507B600FCFDCF81E180935700E8951C
:10F9A00035C0C05EDE4F88819981AA81BB81C0527B
:10F9B000D140B695A795979587957C018601ABE0D8
:10F9C000AA2EB12CAC0EBD1E0BC0D5016D915D01F0
:10F9D000C7010F947FFE0894E11CF11C01501040F8
:10F9E0000115110591F7A60160E070E0440F551F65
:10F9F000661F771FC05EDE4FE880F9800A811B8199
:10FA0000C052D1404E0D5F1D601F711F1A82C05E33
:10FA1000DE4F488359836A837B83C052D1407FC0C5
:10FA2000FA80C55CDE4FF882CB53D140C65CDE4F16
:10FA30001882CA53D1408B81C82EDD24C65CDE4FAC
:10FA400008811981CA53D140C02AD12A1A828981DA
:10FA5000BE016D5F7F4F843121F59601C05EDE4FA0
:10FA6000E880F9800A811B81C052D1400BBFF701A9
:10FA700087919691DB018C9311969C936E5F7F4FDB
:10FA8000D801C7010296A11DB11DC05EDE4F88835B
:10FA90009983AA83BB83C052D14022503040F1F6F3
:10FAA00036C0C05EDE4F288139814A815B81C052F9
:10FAB000D1400894C108D108760100E010E0089414
:10FAC000C11CD11C0894E11CF11C011D111DE20E8A
:10FAD000F31E041F151F21BDBB27A52F942F832FB5
:10FAE00082BD2F5F3F4F4F4F5F4FF89A80B5DB01CC
:10FAF0008D93BD012E153F054007510761F7C05E8C
:10FB0000DE4F288339834A835B83C052D1409601FC
:10FB10002D5F3F4FFB01108204C080EC8A8322E0FE
:10FB200030E08BE18093C6008091C00086FFFCCF5F
:10FB30008091C00080648093C000C15DDE4FF88179
:10FB4000CF52D140F093C6008091C00086FFFCCF19
:10FB50008091C00080648093C000432F3093C60022
:10FB60008091C00086FFFCCF8091C00080648093AC
:10FB7000C000922F2093C6008091C00086FFFCCF6A
:10FB80008091C00080648093C0008EE08093C600A6
:10FB90008091C00086FFFCCF8091C000806480937C
:10FBA000C00065E1C15DDE4FE880CF52D1406E25D7
:10FBB00069276427FE01319610C090819093C6009A
:10FBC0008091C00086FFFCCF31968091C000806498
:10FBD0008093C0006927215030402115310569F715
:10FBE0006093C6008091C00086FFFCCF8091C0006A
:10FBF00080648093C00085B1805885B9772081F4F6
:10FC0000C15DDE4F0881CF52D1400F5FC15DDE4F35
:10FC10000883CF52D14090E0A0E0B0E00D941AF4F8
:10FC200027982F9880E090E020ED37E0F901319798
:10FC3000F1F7019684369105C9F700008091C00064
:10FC40008D7F8093C00081E180935700E895EE2777
:10FC5000FF270994FFCF90E00D941AF497FB092E2B
:10FC600007260AD077FD04D02ED006D000201AF443
:10FC7000709561957F4F0895F6F7909581959F4F08
:10FC80000895A1E21A2EAA1BBB1BFD010DC0AA1FDD
:10FC9000BB1FEE1FFF1FA217B307E407F50720F0F5
:10FCA000A21BB30BE40BF50B661F771F881F991F70
:10FCB0001A9469F760957095809590959B01AC01B9
:10FCC000BD01CF010895AA1BBB1B51E107C0AA1FAC
:10FCD000BB1FA617B70710F0A61BB70B881F991FED
:10FCE0005A95A9F780959095BC01CD010895F99991
:10FCF000FECF92BD81BDF89A992780B50895262F31
:10FD0000F999FECF1FBA92BD81BD20BD0FB6F89400
:0EFD1000FA9AF99A0FBE01960895F894FFCF63
:040000033000E000E9
:00000001FF